:020000020000FC
:02000000A3C299
:0200380056C2AE
:0200400051C1AC
:1002000008E00093410604E00093420603E00093F7
:10021000A5080CE00093A60800E00093A70808E1F9
:100220000093A4080895B0E1AA27B0932608A093EC
:10023000270801E0009300080C941C0108950AE1CE
:100240000093930608E0009382060FEF0093610687
:1002500003E7009382010AE20093030800E10093A0
:100260000108BB27AFEFA0932608B093270801E051
:100270000093000800910C0804FF0C943A01000060
:1002800000912808009364060C943A0108950FEF3A
:100290000093610600E20093660600E100936506A4
:1002A00000E00093500601E00093420600E6009350
:1002B000800108E20093030800E100930108BFE712
:1002C000AFEFA0932608B093270801E00093000841
:1002D00001E00093070801E00093A20078940C94D9
:1002E0006F01089500E20093670600E1009367063E
:1002F000109128080091290807FF0C94D1010000F3
:100300000078D801CFE0C0930020DD27CC27FF275D
:10031000EE27112733272A969894AC17BD0728F0AB
:1003200011601A9731960C948C013395D0E2CC274A
:10033000C30FA8839894113059F4BB27AA27DF0173
:10034000FF27EE27DD27CC2711272A960C948C0156
:100350000881CA9598940F3011F120E3020F0F9392
:100360001F9198941A3089F40091A10805FF0C940C
:10037000B40100001093A0080091A10805FF0C949F
:10038000BC0100001DE01093A0080091A10805FF2A
:100390000C94C50100001093A0080C94A8010C94C3
:1003A0001F02D801CFE0C0930020DD27CC27FF2714
:1003B000EE27112733272A969894AC17BD0728F00B
:1003C00011601A9731960C94DC013395D0E2CC275A
:1003D000C30FA8839894113059F4BB27AA27DF01D3
:1003E000FF27EE27DD27CC2711272A960C94DC0166
:1003F0000881CA9598940F3011F120E3020F0F93F2
:100400001F9198941A3089F40091A10805FF0C946B
:10041000040200001093A0080091A10805FF0C94AD
:100420000C0200001DE01093A0080091A10805FF38
:100430000C94150200001093A0080C94F801189574
:1004400002E000934106B2E0AA27A0932608B093E9
:1004500027080091010803600093010800E200935F
:10046000010805E000930008BB27AA27DD27CC2759
:10047000D2E05F969894AC17BD0718F0BB27AA2767
:100480005F96A0933A08B0933B0800910C0800FFD8
:100490000C944502000001E000930C080C94390212
:1004A00008950AE10093930608E00093820600E3B2
:1004B0000093610603E70093800107E00093880141
:1004C000A4E0BB27A0932608B093270800E100937F
:1004D000A30801E00093A200789408E000930008CC
:1004E0000C947002089500E20093670600E1009307
:1004F0006706189500E10093610600EC0093800107
:1005000000910308006100930308A2EEB4E0A093F9
:100510002608B0932708A8ECBB27A0936608B093E1
:10052000670808E00093400804E000934008009149
:100530004C0800FF0C949702000000E1009367064E
:1005400001E000934C0808950E9400010E947A0285
:00000001FF
