:100000000C94FA000C9418010C9418010C9418012B
:100010000C9418010C9418010C9418010C941801FC
:100020000C9418010C9418010C9418010C941801EC
:100030000C9418010C9418010C9418010C941801DC
:100040000C9418010C9418010C9418010C941801CC
:100050000C9418010C9418010C9418010C941801BC
:100060000C9418010C9418010C9418010C941801AC
:100070000C9418010C9418010C9418010C9418019C
:100080000C9418010C9418010C9418010C9418018C
:100090000C9418010C9418010C9418010C9418017C
:1000A0000C9418010C9418010C9418010C9418016C
:1000B0000C9418010C9418010C9418010C9418015C
:1000C0000C9418010C9418010C9418010C9418014C
:1000D0000C9418010C9418010C9418010C9418013C
:1000E0000C9418010C9418010C9418010C9418012C
:1000F0000C9418010C9418010C9418010C9418011C
:100100000C9418010C9418010C9418010C9418010B
:100110000C9418010C9418010C9418010C941801FB
:100120000C9418010C9418010C9418010C941801EB
:100130000C9418010C9418010C9418010C941801DB
:100140000C9418010C9418010C9418010C941801CB
:100150000C9418010C9418010C9418010C941801BB
:100160000C9418010C9418010C9418010C941801AB
:100170000C9418010C9418010C9418010C9418019B
:100180000C9418010C9418010C9418010C9418018B
:100190000C9418010C9418010C9418010C9418017B
:1001A0000C9418010C9418010C9418010C9418016B
:1001B0000C9418010C9418010C9418010C9418015B
:1001C0000C9418010C9418010C9418010C9418014B
:1001D0000C9418010C9418010C9418010C9418013B
:1001E0000C9418010C9418010C9418010C9418012B
:1001F0000C94180111241FBECFEFDFE3DEBFCDBF8B
:1002000000E00CBF18BE19BE1ABE1BBE10E2A0E073
:10021000B0E2E6E0F3E000E00BBF02C007900D9211
:10022000A030B107D9F71BBE0E9449010C9481018F
:100230000C9400008FE1809382068093B00088E1E7
:100240008093900608958091880681FD03C021E087
:1002500091E002C020E090E08091880680FD02C01D
:1002600022609F5F8091880684FD02C024609F5FAA
:100270008091880682FD02C028609F5F8091880679
:1002800083FD02C020619F5F923008F020E0822F42
:1002900008950F931F9380E38093610680E280931B
:1002A000660680E1809366068FE1809382068093E4
:1002B000B00088E18093900610E200E10E942301E3
:1002C0008823E1F38430A1F0853028F4813041F0B7
:1002D0008230A1F70AC0883071F0803179F70EC002
:1002E0001093670600936706E9CF10936606E6CF82
:1002F00010936506E3CF00936606E0CF8093650612
:06030000DDCFF894FFCFF1
:00000001FF
