:020000020000FC
:020000002DC110
:020040000DC1F0
:10020000494E544F4D41494E0000494E544F73776B
:100210000000494E544F667573650000776454655D
:100220006E61626C65640000776454756E656E6122
:10023000626C6564000008E00093410604E00093EE
:10024000420603E00093A5080CE00093A60800E036
:100250000093A70808E00093A40808950E941B01DA
:100260000AE00F931F9198941A30A9F40F9300910C
:10027000A10805FF0C94370100000F911093A0080E
:100280000F930091A10805FF0C94410100000F910C
:100290001DE01093A0080F930091A10805FF0C9496
:1002A0004C0100000F911093A008FF93EF930F9360
:1002B000F2E0E0E004919894003039F10F931F913F
:1002C00098941A30A9F40F930091A10805FF0C949B
:1002D000640100000F911093A0080F930091A108F2
:1002E00005FF0C946E0100000F911DE01093A00813
:1002F0000F930091A10805FF0C94790100000F9164
:100300001093A00831960C945A010F91EF91FF9130
:100310000AE00F931F9198941A30A9F40F9300915B
:10032000A10805FF0C948F0100000F911093A00805
:100330000F930091A10805FF0C94990100000F9103
:100340001DE01093A0080F930091A10805FF0C94E5
:10035000A40100000F911093A0080E94AF01FF9329
:10036000EF930F93F2E0EAE004919894003039F1B2
:100370000F931F9198941A30A9F40F930091A1083C
:1003800005FF0C94BE0100000F911093A0080F937D
:100390000091A10805FF0C94C80100000F911DE019
:1003A0001093A0080F930091A10805FF0C94D301AE
:1003B00000000F911093A00831960C94B4010F9196
:1003C000EF91FF910AE00F931F9198941A30A9F4CE
:1003D0000F930091A10805FF0C94E90100000F9113
:1003E0001093A0080F930091A10805FF0C94F3014E
:1003F00000000F911DE01093A0080F930091A10839
:1004000005FF0C94FE0100000F911093A0080BE073
:1004100018ED10933400009380000091820000FDDD
:100420000C940D0200000091800001FF0C944E021C
:100430000000FF93EF930F93F2E0ECE104919894A6
:10044000003039F10F931F9198941A30A9F40F934B
:100450000091A10805FF0C94280200000F91109351
:10046000A0080F930091A10805FF0C943202000030
:100470000F911DE01093A0080F930091A10805FFB4
:100480000C943D0200000F911093A00831960C943B
:100490001E020F91EF91FF910C948102FF93EF9355
:1004A0000F93F2E0E8E204919894003039F10F9351
:1004B0001F9198941A30A9F40F930091A10805FF99
:1004C0000C945D0200000F911093A0080F9300910F
:1004D000A10805FF0C94670200000F911DE0109326
:1004E000A0080F930091A10805FF0C947202000070
:1004F0000F911093A00831960C9453020F91EF9135
:08050000FF91A8950C94810203
:00000001FF
