:020000020000FC
:020000003FC1FE
:020040001FC1DE
:0200380046C1BF
:1002000080868C93999FA5ABB1B6BCC1C7CCD1D524
:10021000DADEE2E6EAEDF0F3F5F8FAFBFDFEFEFFCA
:10022000FFFFFEFEFDFBFAF8F5F3F0EDEAE6E2DE95
:10023000DAD5D1CCC7C1BCB6B1ABA59F99938C869A
:10024000807A746D67615B554F4A443F39342F2B78
:1002500026221E1A1613100D0B08060503020201B2
:1002600001010202030506080B0D1013161A1E22C7
:10027000262B2F34393F444A4F555B61676D747AA2
:1002800000E20093600602E000934106AFEFBB2757
:10029000A0932608B09327080091010803600093FB
:1002A000010800E20093010800E10093A30801E0C7
:1002B0000093A200789405E000930008F2E0E0E0EB
:1002C000BB270C94610100E200936706B395B7FF6A
:1002D0000C946C010000BB270591112700933A088C
:0602E00010933B08189585
:00000001FF
