:020000020000FC
:02000000FEC13F
:02004000DEC11F
:0201280071C1A3
:10020000414443415F4F46465345543D00004348F7
:10021000414E454C5F303D004348414E454C5F31B7
:100220003D004348414E454C5F323D004348414EFE
:10023000454C5F333D0008E00093410604E0009325
:10024000420603E00093A5080CE00093A60800E036
:100250000093A70808E00093A4080895E0E2FF27B0
:1002600002E00093CA011591249100E00093CA01B5
:1002700010930C0220930D0200E10093010203E0B1
:100280000093040200E00093020202E000932002C7
:1002900000E00093210205E0009300020E94920416
:1002A000F2E0E0E004919894003009F10F931F917F
:1002B00098941A3089F40091A10805FF0C945B0111
:1002C00000001093A0080091A10805FF0C946301A1
:1002D00000001DE01093A0080091A10805FF0C94F8
:1002E0006C0100001093A00831960C94520100910B
:1002F000230200FF0C947901000001E00093230227
:10030000A0911002B0911102CFE0C0930020DD2730
:10031000CC27FF27EE27112733272A969894AC176E
:10032000BD0728F011601A9731960C948E01339511
:10033000D0E2CC27C30FA8839894113059F4BB277F
:10034000AA27DF01FF27EE27DD27CC2711272A96D2
:100350000C948E010881CA9598940F3011F120E316
:10036000020F0F931F9198941A3089F40091A108FD
:1003700005FF0C94B60100001093A0080091A1089D
:1003800005FF0C94BE0100001DE01093A008009131
:10039000A10805FF0C94C70100001093A0080C945D
:1003A000AA0100E00093000201E00093200201E0B6
:1003B0000093280201E00093300201E0009338022C
:1003C00000E00093210200E10093290200E2009383
:1003D000310200E30093390200EC0093030201E0D4
:1003E00000933A0201E00093A200789401E00093A8
:1003F00000020E94920408E00093010208959927E8
:100400000E941B010E942E010C94040293959530CA
:1004100031F400E00093A20000E00093010201E04B
:100420000093230200932B02009333020AE00F9300
:100430001F9198941A3089F40091A10805FF0C943B
:100440001C0200001093A0080091A10805FF0C9465
:10045000240200001DE01093A0080091A10805FFF0
:100460000C942D0200001093A008F2E0EEE004913D
:100470009894003009F10F931F9198941A3089F4E1
:100480000091A10805FF0C94400200001093A00801
:100490000091A10805FF0C94480200001DE0109394
:1004A000A0080091A10805FF0C94510200001093D0
:1004B000A00831960C943702A0911002B09111025D
:1004C000CFE0C0930020DD27CC27FF27EE271127A0
:1004D00033272A969894AC17BD0728F011601A9715
:1004E00031960C946A023395D0E2CC27C30FA883CF
:1004F0009894113059F4BB27AA27DF01FF27EE2774
:10050000DD27CC2711272A960C946A020881CA9508
:1005100098940F3011F120E3020F0F931F919894DC
:100520001A3089F40091A10805FF0C949202000092
:100530001093A0080091A10805FF0C949A020000F6
:100540001DE01093A0080091A10805FF0C94A302E0
:1005500000001093A0080C9486020AE00F931F91EC
:1005600098941A3089F40091A10805FF0C94B30205
:1005700000001093A0080091A10805FF0C94BB0295
:1005800000001DE01093A0080091A10805FF0C9445
:10059000C40200001093A008F2E0E8E104919894EE
:1005A000003009F10F931F9198941A3089F400914B
:1005B000A10805FF0C94D70200001093A008009139
:1005C000A10805FF0C94DF0200001DE01093A008B5
:1005D0000091A10805FF0C94E80200001093A00808
:1005E00031960C94CE02A0911202B0911302CFE08A
:1005F000C0930020DD27CC27FF27EE2711273327C4
:100600002A969894AC17BD0728F011601A97319676
:100610000C9401033395D0E2CC27C30FA8839894A0
:10062000113059F4BB27AA27DF01FF27EE27DD276A
:10063000CC2711272A960C9401030881CA95989417
:100640000F3011F120E3020F0F931F9198941A308D
:1006500089F40091A10805FF0C9429030000109370
:10066000A0080091A10805FF0C94310300001DE0D3
:100670001093A0080091A10805FF0C943A03000014
:100680001093A0080C941D030AE00F931F919894F7
:100690001A3089F40091A10805FF0C944A03000068
:1006A0001093A0080091A10805FF0C9452030000CC
:1006B0001DE01093A0080091A10805FF0C945B03B6
:1006C00000001093A008F2E0E2E204919894003058
:1006D00009F10F931F9198941A3089F40091A108A1
:1006E00005FF0C946E0300001093A0080091A10870
:1006F00005FF0C94760300001DE01093A008009104
:10070000A10805FF0C947F0300001093A008319608
:100710000C946503A0911402B0911502CFE0C09330
:100720000020DD27CC27FF27EE27112733272A9625
:100730009894AC17BD0728F011601A9731960C9465
:1007400098033395D0E2CC27C30FA8839894113037
:1007500059F4BB27AA27DF01FF27EE27DD27CC2787
:1007600011272A960C9498030881CA9598940F3003
:1007700011F120E3020F0F931F9198941A3089F41E
:100780000091A10805FF0C94C00300001093A0087D
:100790000091A10805FF0C94C80300001DE0109310
:1007A000A0080091A10805FF0C94D103000010934C
:1007B000A0080C94B4030AE00F931F9198941A3088
:1007C00089F40091A10805FF0C94E1030000109347
:1007D000A0080091A10805FF0C94E90300001DE0AA
:1007E0001093A0080091A10805FF0C94F2030000EB
:1007F0001093A008F2E0ECE204919894003009F123
:100800000F931F9198941A3089F40091A10805FF65
:100810000C94050400001093A0080091A10805FFA6
:100820000C940D0400001DE01093A0080091A10895
:1008300005FF0C94160400001093A00831960C9448
:10084000FC03A0911602B0911702CFE0C0930020E4
:10085000DD27CC27FF27EE27112733272A969894E8
:10086000AC17BD0728F011601A9731960C942F042D
:100870003395D0E2CC27C30FA8839894113059F454
:10088000BB27AA27DF01FF27EE27DD27CC2711276B
:100890002A960C942F040881CA9598940F3011F170
:1008A00020E3020F0F931F9198941A3089F400915E
:1008B000A10805FF0C94570400001093A0080091B4
:1008C000A10805FF0C945F0400001DE01093A00830
:1008D0000091A10805FF0C94680400001093A00883
:1008E0000C944B040AE00F931F9198941A3089F4EA
:1008F0000091A10805FF0C94780400001093A00853
:100900000091A10805FF0C94800400001DE01093E5
:10091000A0080091A10805FF0C9489040000109321
:10092000A00818951FEF2FEF2A95F1F71A95D9F720
:02093000089528
:00000001FF
