:100000000C94FA000C9418010C9418010C9418012B
:100010000C9418010C9418010C9418010C941801FC
:100020000C9418010C9418010C9418010C941801EC
:100030000C9418010C9418010C9418010C941801DC
:100040000C9418010C9418010C9418010C941801CC
:100050000C9418010C9418010C9418010C941801BC
:100060000C9418010C9418010C9418010C941801AC
:100070000C9418010C9418010C9418010C9418019C
:100080000C9418010C9418010C9418010C9418018C
:100090000C9418010C9418010C9418010C9418017C
:1000A0000C9418010C9418010C9418010C9418016C
:1000B0000C9418010C9418010C9418010C9418015C
:1000C0000C9418010C9418010C9418010C9418014C
:1000D0000C9418010C9418010C9418010C9418013C
:1000E0000C9418010C9418010C9418010C9418012C
:1000F0000C9418010C9418010C9418010C9418011C
:100100000C9418010C9418010C9418010C9418010B
:100110000C9418010C9418010C9418010C941801FB
:100120000C9418010C9418010C9418010C941801EB
:100130000C9418010C9418010C9418010C941801DB
:100140000C9418010C9418010C9418010C941801CB
:100150000C9418010C9418010C9418010C941801BB
:100160000C9418010C9418010C9418010C941801AB
:100170000C9418010C9418010C9418010C9418019B
:100180000C9418010C9418010C9418010C9418018B
:100190000C9418010C9418010C9418010C9418017B
:1001A0000C9418010C9418010C9418010C9418016B
:1001B0000C9418010C9418010C9418010C9418015B
:1001C0000C9418010C9418010C9418010C9418014B
:1001D0000C9418010C9418010C9418010C9418013B
:1001E0000C9418010C9418010C9418010C9418012B
:1001F0000C94180111241FBECFEFDFE3DEBFCDBF8B
:1002000000E00CBF18BE19BE1ABE1BBE10E2A0E073
:10021000B0E2ECE7F7E000E00BBF02C007900D9200
:10022000AE3BB107D9F71BBE0E9459030C94BC0327
:100230000C9400001F93182F8A3019F48DE00E944F
:100240001A018091A10885FFFCCF1093A0081F918F
:1002500008951F93182F82958F708A3010F4805D57
:1002600001C0895A0E941A01812F90E08F7090700E
:10027000212F2F700A971CF4822F805D02C0822FDD
:10028000895A0E941A011F9108951F93182F892FD0
:100290000E942901812F0E9429011F910895EF9248
:1002A000FF920F931F937B018C01C801AA27BB27E4
:1002B0000E944501C7010E9445011F910F91FF90C7
:1002C000EF900895CF92DF92FF920F931F93CF93F9
:1002D000DF936C01C0E1D7E240E000E010E0C6012E
:1002E000BE010E948603F62E662329F4442319F4E6
:1002F000C130D10529F48F2D805D0E941A0141E0A3
:10030000CE016AE070E00E9486030F5F1F4F053048
:10031000110571F08F2D90E09C012C9FC0012D9F45
:10032000900D3C9F900D1124C81AD90AEB01D7CF2C
:10033000DF91CF911F910F91FF90DF90CF900895A3
:100340004F925F926F927F928F929F92AF92BF92E5
:10035000CF92DF92EF92FF920F931F93CF93DF9391
:100360005B016C01E12C9AECF92E9AE9092F9BE3D1
:10037000192F4424C0E0D0E0C601B501A8019701BF
:100380000E949A03922E222341F4442031F481E00A
:10039000E816F1040105110531F4892D805D0E94F4
:1003A0001A0144244394C801B7012AE030E040E038
:1003B00050E00E949A03822E732E642E552E2196B1
:1003C000CA30D105A9F0692D70E080E090E0A80165
:1003D00097010E946703A61AB70AC80AD90A282DEE
:1003E000372D462D552DC901DA017C018D01C4CF71
:1003F000DF91CF911F910F91FF90EF90DF90CF9001
:10040000BF90AF909F908F907F906F905F904F9034
:100410000895CF93DF93EC0103C021960E941A0147
:1004200088818823D1F7DF91CF9108958091A10829
:1004300087FFFCCF8091A0088D3009F48AE00895F1
:1004400080918000836098ED94BF809380008091BC
:10045000820080FDFCCF0895836098ED94BF809367
:1004600080008091820080FDFCCF0895E0E8F0E0FC
:1004700080818C7F816098ED94BF80830895E0E84F
:10048000F0E081818695817008952091800090919F
:100490008100936088ED84BFE0E8F0E09183809173
:1004A000820080FDFCCF2695822F817008952091D7
:1004B0008000836098ED94BFE0E8F0E08183809154
:1004C000820080FDFCCF2695822F81700895E0E8A0
:1004D000F0E081818C7F816098ED94BF81830895E5
:1004E000E0E4F6E088E0818384E08283E0EAF8E0FB
:1004F00085818F73858383E085838CE08683178273
:10050000848188608483848180618483089580E00D
:1005100090E20E9409028AE00E941A0188ED84BFDD
:100520008BE0809380008091820080FDFCCF8091E1
:10053000800081FF03C08AE290E202C08AE390E279
:100540000E9409028AE00E941A01809180008C7F3B
:10055000816098ED94BF809380008091800081FF3E
:1005600003C08AE290E202C08AE390E20E9409029C
:100570008AE00E941A018091810081FF03C08DE40E
:1005800090E202C087E690E20E9409028AE00E949F
:100590001A0188ED84BF83E18093800080918200FE
:1005A00080FDFCCF8CE00E9457028091810081FF8A
:1005B00003C08DE490E202C087E690E20E94090247
:1005C0008AE00E941A0120E830E044EF51E005C0C3
:1005D000CA010197F1F72150304021153105C1F7CB
:1005E000A89520E830E0F4CF85E890E20E94090267
:1005F0008AE00E941A01A8958091800081FF03C0C3
:100600008AE290E202C08AE390E20E9409028AE054
:100610000E941A018091810081FF03C08DE490E265
:1006200002C087E690E20E9409028AE00E941A0155
:100630008091810081FDFFCF0E94450288EC9FEAF6
:100640000197F1F7A8958091810081FF03C08DE4A7
:1006500090E202C087E690E20E9409028AE00E94CE
:100660001A01809181008C7F816098ED94BFE0E851
:10067000F0E081838091810081FF03C08DE490E2EE
:1006800002C087E690E20E9409028AE00E941A01F5
:1006900020E430E044EF51E005C0CA010197F1F7D2
:1006A0002150304021153105C1F7A89520E430E0F4
:1006B000F4CF0E94700281EB90E20E9409028AE06E
:1006C0000E941A010E94F40280E090E00895629F67
:1006D000D001739FF001829FE00DF11D649FE00D3A
:1006E000F11D929FF00D839FF00D749FF00D659F9B
:1006F000F00D9927729FB00DE11DF91F639FB00D9A
:10070000E11DF91FBD01CF0111240895AA1BBB1BD8
:1007100051E107C0AA1FBB1FA617B70710F0A61B01
:10072000B70B881F991F5A95A9F780959095BC0122
:10073000CD010895A1E21A2EAA1BBB1BFD010DC01D
:10074000AA1FBB1FEE1FFF1FA217B307E407F50781
:1007500020F0A21BB30BE40BF50B661F771F881F5D
:10076000991F1A9469F760957095809590959B01F3
:0C077000AC01BD01CF010895F894FFCF4B
:10077C00696E7369646520766F6964207764745F51
:10078C0073775F656E61626C655F6578616D706CC7
:10079C00652820766F6964202900574454204973DA
:1007AC002020456E61626C65640057445420497387
:1007BC00206E6F7420456E61626C65640057445402
:1007CC002049732057696E646F774D6F64652045BF
:1007DC006E61626C656400574454204973206E6FDF
:1007EC00742057696E646F774D6F646520456E6138
:1007FC00626C656400696E7369646520766F696408
:10080C00207764745F667573655F656E61626C6595
:10081C005F6578616D706C652820766F696420293E
:0E082C0000696E73696465206D61696E00007D
:00000001FF
