:100000000C94FA000C9418010C9418010C9418012B
:100010000C9418010C9418010C9418010C941801FC
:100020000C9418010C9418010C9418010C941801EC
:100030000C9418010C9418010C9418010C941801DC
:100040000C9418010C9418010C9418010C941801CC
:100050000C9418010C9418010C9418010C941801BC
:100060000C9418010C9418010C9418010C941801AC
:100070000C9418010C9418010C9418010C9418019C
:100080000C9418010C9418010C9418010C9418018C
:100090000C9418010C9418010C9418010C9418017C
:1000A0000C9418010C9418010C9418010C9418016C
:1000B0000C9418010C9418010C9418010C9418015C
:1000C0000C9418010C9418010C9418010C9418014C
:1000D0000C9418010C9418010C9418010C9418013C
:1000E0000C9418010C9418010C9418010C9418012C
:1000F0000C9418010C9418010C9418010C9418011C
:100100000C9418010C9418010C9418010C9418010B
:100110000C94A2020C94B6020C9418010C941801D1
:100120000C9418010C9418010C9418010C941801EB
:100130000C9418010C9418010C9418010C941801DB
:100140000C9418010C9418010C9418010C941801CB
:100150000C9418010C9418010C9418010C941801BB
:100160000C9418010C9418010C9418010C941801AB
:100170000C9418010C9418010C9418010C9418019B
:100180000C9418010C9418010C9418010C9418018B
:100190000C9418010C9418010C9418010C9418017B
:1001A0000C9418010C9418010C9418010C9418016B
:1001B0000C9418010C9418010C9418010C9418015B
:1001C0000C9418010C9418010C9418010C9418014B
:1001D0000C9418010C9418010C9418010C9418013B
:1001E0000C9418010C9418010C9418010C9418012B
:1001F0000C94180111241FBECFEFDFE3DEBFCDBF8B
:1002000000E00CBF18BE19BE1ABE1BBE10E2A0E073
:10021000B0E2E8E9F5E000E00BBF02C007900D9204
:10022000A030B107D9F71BBE0E9432020C94CA025B
:100230000C940000FC01662351F49081442311F4D6
:1002400081E001C089E0977F892B808308959181A7
:10025000442311F481E001C089E0977F892B8183D9
:100260000895FC01662321F480818E7F80830895A8
:1002700081818E7F81830895FC01242B662329F4DC
:1002800080818F70282B2083089581818F70282B87
:1002900021830895FC01662329F48081897F842BC2
:1002A000808308958181897F842B81830895FC0157
:1002B000242B662329F48281807C282B22830895B5
:1002C0008381807C282B23830895FC0185816F73B3
:1002D000807C862B85830895FC0186816061642B78
:1002E000807F862B86830895FC018FEE8683089598
:1002F000FC018481816084830895FC0184818E7F68
:1003000084830895FC01662319F487818071089520
:10031000613011F080E00895878180720895FC01BA
:100320008781807C0895FC01662329F4878180FF02
:10033000FDCF81E004C0878181FFFDCF82E087830C
:100340000895FC01878182FFFDCF84E087830895B3
:10035000FC018081807F862B80830895FC01808151
:10036000807F862B80830895FC018181887F862B86
:1003700081830895FC018181887F862B8183089584
:10038000FC01838180718062862B83830895FC0148
:10039000838180718062862B83830895FC01818133
:1003A000607F862B81830895FC0181816073862B99
:1003B00081830895FC018181607F6095862381831C
:1003C0000895FC018181607360958623818308957F
:1003D000FC0186818C7F862B86830895FC018681B3
:1003E0008C7F862B86830895FC018681837F862BF4
:1003F00086830895FC018681837F862B86830895FA
:10040000FC0187818C7F862B87830895FC0187817F
:100410008C7F862B87830895FC018781837F862BC1
:1004200087830895FC018781837F862B87830895C6
:10043000FC0187818F7C862B87830895FC0187814F
:100440008F73862B87830895FC018081807F808352
:100450008CE081870895FC018081807F80838CE01F
:10046000818708950F931F93E0EBF0E080E1828392
:1004700082E3838310BA8FEF88BB8CBBE0E0F8E0A7
:1004800080EA9FE086A397A388EE93E080AF91AFC8
:1004900080ED97E082AF93AF80910108887F836001
:1004A000818380910108806181838091010880624D
:1004B000818380910008807F87608093000880E8B6
:1004C00093E060E040E00E941A0180E893E061E080
:1004D00040E00E941A0100E813E080918503807CCF
:1004E000F801858380E893E060E040E027E00E9427
:1004F000570180E893E061E040E127E00E94570166
:1005000080918003897F8260809380038091810342
:10051000897F8260F801818380E893E060E040ECAD
:1005200020E10E943C0180E893E061E040E820E1A6
:100530000E943C018091A2008760E0EAF0E08283A3
:100540007894FFCF1F920F920FB60F9208B60F92BA
:10055000112418BE8F9380E1809367068F910F90CE
:1005600008BE0F900FBE0F901F9018951F920F920C
:100570000FB60F9208B60F92112418BE8F9380E227
:10058000809367068F910F9008BE0F900FBE0F905B
:080590001F901895F894FFCFAD
:00000001FF
