:100000000C94FA000C9420010C9420010C94200113
:100010000C9420010C9420010C9420010C942001DC
:100020000C9420010C9420010C9420010C942001CC
:100030000C9420010C9420010C9420010C942001BC
:100040000C9420010C9420010C9420010C942001AC
:100050000C9420010C9420010C9420010C9420019C
:100060000C9420010C9420010C9420010C9420018C
:100070000C9420010C9420010C9420010C9420017C
:100080000C9420010C9420010C9420010C9420016C
:100090000C9420010C9420010C9420010C9420015C
:1000A0000C9420010C9420010C9420010C9420014C
:1000B0000C9420010C9420010C9420010C9420013C
:1000C0000C9420010C9420010C9420010C9420012C
:1000D0000C9420010C9420010C9420010C9420011C
:1000E0000C9420010C9420010C9420010C9420010C
:1000F0000C9420010C9420010C9420010C942001FC
:100100000C9420010C9420010C9420010C942001EB
:100110000C9420010C9420010C9420010C942001DB
:100120000C9420010C94FE040C9420010C942001EA
:100130000C9420010C9420010C9420010C942001BB
:100140000C9420010C9420010C9420010C942001AB
:100150000C9420010C9420010C9420010C9420019B
:100160000C9420010C9420010C9420010C9420018B
:100170000C9420010C9420010C9420010C9420017B
:100180000C9420010C9420010C9420010C9420016B
:100190000C9420010C9420010C9420010C9420015B
:1001A0000C9420010C9420010C9420010C9420014B
:1001B0000C9420010C9420010C9420010C9420013B
:1001C0000C9420010C9420010C9420010C9420012B
:1001D0000C9420010C9420010C9420010C9420011B
:1001E0000C9420010C9420010C9420010C9420010B
:1001F0000C94200111241FBECFEFDFE3DEBFCDBF83
:1002000000E00CBF18BE19BE1ABE1BBE10E2A0E073
:10021000B0E2E2EFFCE000E00BBF02C007900D92FD
:10022000A23EB107D9F71BBE11E2A2EEB0E201C0B7
:100230001D92A533B107E1F70E94F9040C947706EB
:100240000C9400001F93182F8A3019F48DE00E943F
:1002500022018091A10885FFFCCF1093A0081F9177
:1002600008951F93182F82958F708A3010F4805D47
:1002700001C0895A0E942201812F90E08F709070F6
:10028000212F2F700A971CF4822F805D02C0822FCD
:10029000895A0E9422011F9108951F93182F892FB8
:1002A0000E943101812F0E9431011F910895EF9228
:1002B000FF920F931F937B018C01C801AA27BB27D4
:1002C0000E944D01C7010E944D011F910F91FF90A7
:1002D000EF900895CF92DF92FF920F931F93CF93E9
:1002E000DF936C01C0E1D7E240E000E010E0C6011E
:1002F000BE010E942E06F62E662329F4442319F42B
:10030000C130D10529F48F2D805D0E94220141E08A
:10031000CE016AE070E00E942E060F5F1F4F05308D
:10032000110571F08F2D90E09C012C9FC0012D9F35
:10033000900D3C9F900D1124C81AD90AEB01D7CF1C
:10034000DF91CF911F910F91FF90DF90CF90089593
:100350004F925F926F927F928F929F92AF92BF92D5
:10036000CF92DF92EF92FF920F931F93CF93DF9381
:100370005B016C01E12C9AECF92E9AE9092F9BE3C1
:10038000192F4424C0E0D0E0C601B501A8019701AF
:100390000E945506922E222341F4442031F481E03C
:1003A000E816F1040105110531F4892D805D0E94E4
:1003B000220144244394C801B7012AE030E040E020
:1003C00050E00E945506822E732E642E552E2196E3
:1003D000CA30D105A9F0692D70E080E090E0A80155
:1003E00097010E940F06A61AB70AC80AD90A282D33
:1003F000372D462D552DC901DA017C018D01C4CF61
:10040000DF91CF911F910F91FF90EF90DF90CF90F0
:10041000BF90AF909F908F907F906F905F904F9024
:100420000895CF93DF93EC0103C021960E9422012F
:1004300088818823D1F7DF91CF9108958091A10819
:1004400087FFFCCF8091A0088D3009F48AE00895E1
:10045000DC0182E0A030B80781F482E08093CA0119
:10046000E0E2F0E0E4911092CA011C96EC931C9734
:100470008093CA01E1E2F0E00FC082E08093CA01FC
:10048000E4E2F0E0E4911092CA011C96EC931C9710
:100490008093CA01E5E2F0E0E4911092CA011D9652
:1004A000EC930895FC0181E0838324813581261B30
:1004B0003109C9010895FC0181E0838324813581DC
:1004C000772767FD7095261B370BC9010895FC013E
:1004D00081E0838324813581C9010895FC0181E095
:1004E000838384810895FC0181E08383858108955D
:1004F000FC01848114829AE29A95F1F7848308952D
:10050000FC01948181E0848385E58A95F1F79483E9
:100510000895FB014423D9F020E030E040E050E0B2
:1005200061E0808180688083838180FFFDCF638369
:1005300084819581280F391F4F5F5F4F44305105EB
:1005400081F73695279536952795822F08958081D6
:1005500080688083838180FFFDCF81E083838481F5
:1005600095810895FB014423D9F020E030E040E07C
:1005700050E061E0808180688083838180FFFDCFCF
:10058000638384819581480F591F2F5F3F4F24302B
:10059000310581F7CA0164E070E00E9442060BC099
:1005A000808180688083838180FFFDCF81E08383A9
:1005B00084819581682F862F0895AAECB1E092E09E
:1005C0009C93E82FF0E0E4911C928E2F0895E0E4D4
:1005D000F6E088E0818384E08283E0EAF8E08581C8
:1005E0008F73858383E085838CE086831782848183
:1005F000886084838481806184830895EF92FF9270
:100600000F931F93CF93DF9380E090E20E9411023B
:100610008AE00E94220180E092E00E94280200E02D
:1006200012E0E8018981897E806189838C81887FDD
:1006300083608C838A818F7C8A8350E2E52E52E02E
:10064000F52EF7018081807E82608083118288810F
:10065000816088838C811C829AE29A95F1F78C8361
:1006600080E092E060E272E040E00E94B20280939B
:10067000342186E290E20E941102809134210E948E
:1006800031018AE00E94220188818E7F8883F701F0
:100690008081807E8160808328E232E0E901888168
:1006A000807E81608883A0E3B2E08C91807E81604F
:1006B0008C93E8E3F2E08081807E81608083E701B3
:1006C000198280E1E901898380E211968C93119768
:1006D00080E38183F8018381806C838312968C91FF
:1006E0001297807F816012968C93E0EAF0E082811D
:1006F000816082837894E0E0F2E080818160808391
:10070000848114829AE29A95F1F7848381818860CA
:100710008183DF91CF911F910F91FF90EF9008950A
:10072000AF92BF92CF92DF92EF92FF920F931F93FF
:10073000CF93DF9385E390E20E9411028AE00E944A
:10074000220180E092E00E94280200E012E0809105
:100750000102897E8061D80111968C931197809156
:100760000402887F836014968C9314978091020210
:100770008F7C806112968C93129720E2E22E22E009
:10078000F22E80912002807E8260809320028091F0
:100790002802807E8093280280913002807E8160D2
:1007A0008093300280913802807E8160809338028D
:1007B000F701118280910002816080930002809194
:1007C000040214961C9214979AE2D92E9D2D9A95A4
:1007D000F1F714968C9380E092E060E272E040E0E2
:1007E0000E94B2028093342186E290E20E941102BC
:1007F000809134210E9431018AE00E94220180917F
:1008000000028E7F8093000282E0F701818380E105
:10081000E8E2F2E08183E0E3F2E01182E8E3F2E073
:10082000818380910302806CD80113968C93139777
:1008300080910002816080930002809104021496EE
:100840001C92DA94F1F7F8018483809101028860A8
:10085000818380913421282F332727FD3095C4EEE2
:10086000D0E28E01085D1F4FF80180E2C82E82E0C1
:10087000D82E41E0B8E2EB2EB2E0FB2E60E372E04E
:10088000A8E3AA2EA2E0BA2E8091230280FFFCCF1B
:10089000D60113964C938091240290912502821BDD
:1008A000930B8883998380912B0280FFFCCFD70123
:1008B00013964C9380912C0290912D02821B930BE6
:1008C0008C8B9D8B8091330280FFFCCFDB011396D4
:1008D0004C938091340290913502821B930B80835C
:1008E000918380913B0280FFFCCFD50113964C93FE
:1008F00080913C0290913D02821B930B848B958BDF
:1009000022963296B0E2C83FDB0709F0BDCF809156
:100910000102877FE0E0F2E08183809100028E7F18
:100920008093000280E590E20E9411028AE00E941A
:1009300022016497899199910E946A018DE590E264
:100940000E941102E0E2C83FDE07A1F78AE00E94A0
:1009500022018FE590E20E9411028AE00E942201AA
:10096000899199910E946A018DE590E20E9411029D
:10097000F1E2CC30DF07A1F78AE00E9422018CE689
:1009800090E20E9411028AE00E942201D8018D911A
:100990009D918D010E946A018DE590E20E941102F5
:1009A000B1E200321B0791F78AE00E94220189E739
:1009B00090E20E9411028AE00E942201E8018991DE
:1009C00099910E946A018DE590E20E941102E1E294
:1009D000C433DE07A1F78AE00E942201DF91CF91A4
:1009E0001F910F91FF90EF90DF90CF90BF90AF904D
:1009F00008950E94E7020E94FE02FFCF1F920F920D
:100A00000FB60F9208B60F9209B60F920AB60F9260
:100A10000BB60F92112418BE19BE1ABE1BBE2F931F
:100A20003F934F935F936F937F938F939F93AF9376
:100A3000BF93CF93DF93EF93FF938091E220909148
:100A4000E320892B39F486E890E20E9411028AE0C3
:100A50000E9422014091E2205091E32061E0E0E217
:100A6000F2E0638380912402909125022091342149
:100A7000332727FD3095FA01EE0FFF1FEC51FF4D94
:100A8000821B930B80839183E8E2F2E06383809181
:100A90002C0290912D02FA01EE0FFF1FE850FF4D3E
:100AA000821B930B80839183E0E3F2E06383809168
:100AB000340290913502FA01EE0FFF1FE45FFE4D04
:100AC000821B930B80839183A8E3B2E013966C930F
:100AD000139780913C0290913D02FA01EE0FFF1FA7
:100AE000E05EFE4D821B930B80839183493051055C
:100AF00009F071C080913A02807F12968C938091A8
:100B00000102877FE0E0F2E08183809100028E7F26
:100B10008093000283EB90E20E9411028AE00E941F
:100B2000220180E590E20E9411028AE00E942201E7
:100B3000C4EED0E2899199910E946A018DE590E21C
:100B40000E94110280E2C83FD807A1F78AE00E9404
:100B500022018FE590E20E9411028AE00E942201A8
:100B6000899199910E946A018DE590E20E9411029B
:100B700081E2CC30D807A1F78AE00E9422018CE6FE
:100B800090E20E9411028AE00E94220189919991CB
:100B90000E946A018DE590E20E94110281E2C0325A
:100BA000D807A1F78AE00E94220189E790E20E941B
:100BB00011028AE00E942201899199910E946A01A2
:100BC0008DE590E20E94110281E2C433D807A1F7BB
:100BD0008AE00E9422018091E2209091E320019618
:100BE0008093E2209093E320FF91EF91DF91CF91EA
:100BF000BF91AF919F918F917F916F915F914F9135
:100C00003F912F910F900BBE0F900ABE0F9009BE1F
:100C10000F9008BE0F900FBE0F901F901895629F07
:100C2000D001739FF001829FE00DF11D649FE00DE4
:100C3000F11D929FF00D839FF00D749FF00D659F45
:100C4000F00D9927729FB00DE11DF91F639FB00D44
:100C5000E11DF91FBD01CF0111240895AA1BBB1B83
:100C600051E107C0AA1FBB1FA617B70710F0A61BAC
:100C7000B70B881F991F5A95A9F780959095BC01CD
:100C8000CD01089597FB092E07260AD077FD04D0E1
:100C9000E5DF06D000201AF4709561957F4F089526
:100CA000F6F7909581959F4F0895A1E21A2EAA1B01
:100CB000BB1BFD010DC0AA1FBB1FEE1FFF1FA2170C
:100CC000B307E407F50720F0A21BB30BE40BF50B09
:100CD000661F771F881F991F1A9469F76095709592
:100CE000809590959B01AC01BD01CF010895F894CA
:020CF000FFCF34
:100CF200696E7369646520414443415F4348305FD4
:100D0200315F325F335F53776565705F496E74653B
:100D120072727570740020414443206F6666736579
:100D220074203D2000696E7369646520414443412B
:100D32005F4348305F315F325F335F506F6C6C00EE
:100D420020414443412E434830203D20002C0020C6
:100D5200414443412E434831203D20002041444339
:100D6200412E434832203D200020414443412E433E
:100D72004833203D2000696E7369646520496E74B2
:100D820065727275707420726F7574696E65206910
:100D92006E746572727570745F636F756E74203DE8
:100DA200203000696E7369646520496E74657272E1
:100DB20075707420726F7574696E6520696E7465E2
:100DC20072727570745F636F756E74203D2039396D
:020DD2002000FF
:00000001FF
