:100000000C94FA000C9418010C9418010C9418012B
:100010000C9418010C9418010C9418010C941801FC
:100020000C9418010C9418010C9418010C941801EC
:100030000C9418010C9418010C9418010C941801DC
:100040000C9418010C9418010C9418010C941801CC
:100050000C9418010C9418010C9418010C941801BC
:100060000C9418010C9418010C9418010C941801AC
:100070000C9418010C9418010C9418010C9418019C
:100080000C9418010C9418010C9418010C9418018C
:100090000C9418010C9418010C9418010C9418017C
:1000A0000C9418010C9418010C9418010C9418016C
:1000B0000C9418010C9418010C9418010C9418015C
:1000C0000C9418010C9418010C9418010C9418014C
:1000D0000C9418010C9418010C9418010C9418013C
:1000E0000C9418010C9418010C9418010C9418012C
:1000F0000C9418010C9418010C9418010C9418011C
:100100000C9418010C9418010C9418010C9418010B
:100110000C9418010C9418010C9418010C941801FB
:100120000C9418010C9418010C9418010C941801EB
:100130000C9418010C9418010C9418010C941801DB
:100140000C9418010C9418010C9418010C941801CB
:100150000C9418010C9418010C9418010C941801BB
:100160000C9418010C9418010C9418010C941801AB
:100170000C9418010C9418010C9418010C9418019B
:100180000C9418010C9418010C9418010C9418018B
:100190000C9418010C9418010C9418010C9418017B
:1001A0000C9418010C9418010C9418010C9418016B
:1001B0000C9418010C9418010C9418010C9418015B
:1001C0000C9418010C9418010C9418010C9418014B
:1001D0000C9418010C9418010C9418010C9418013B
:1001E0000C9418010C9418010C9418010C9418012B
:1001F0000C94180111241FBECFEFDFE3DEBFCDBF8B
:1002000000E00CBF18BE19BE1ABE1BBE10E2A0E073
:10021000B0E2EEE0F9E000E00BBF02C007900D9203
:10022000AE3AB107D9F71BBE0E9462030C94850455
:100230000C9400001F93182F8A3019F48DE00E944F
:100240001A018091A10885FFFCCF1093A0081F918F
:1002500008951F93182F82958F708A3010F4805D57
:1002600001C0895A0E941A01812F90E08F7090700E
:10027000212F2F700A971CF4822F805D02C0822FDD
:10028000895A0E941A011F9108951F93182F892FD0
:100290000E942901812F0E9429011F910895EF9248
:1002A000FF920F931F937B018C01C801AA27BB27E4
:1002B0000E944501C7010E9445011F910F91FF90C7
:1002C000EF900895CF92DF92FF920F931F93CF93F9
:1002D000DF936C01C0E1D7E240E000E010E0C6012E
:1002E000BE010E944F04F62E662329F4442319F41C
:1002F000C130D10529F48F2D805D0E941A0141E0A3
:10030000CE016AE070E00E944F040F5F1F4F05307E
:10031000110571F08F2D90E09C012C9FC0012D9F45
:10032000900D3C9F900D1124C81AD90AEB01D7CF2C
:10033000DF91CF911F910F91FF90DF90CF900895A3
:100340004F925F926F927F928F929F92AF92BF92E5
:10035000CF92DF92EF92FF920F931F93CF93DF9391
:100360005B016C01E12C9AECF92E9AE9092F9BE3D1
:10037000192F4424C0E0D0E0C601B501A8019701BF
:100380000E946304922E222341F4442031F481E040
:10039000E816F1040105110531F4892D805D0E94F4
:1003A0001A0144244394C801B7012AE030E040E038
:1003B00050E00E946304822E732E642E552E2196E7
:1003C000CA30D105A9F0692D70E080E090E0A80165
:1003D00097010E943004A61AB70AC80AD90A282D24
:1003E000372D462D552DC901DA017C018D01C4CF71
:1003F000DF91CF911F910F91FF90EF90DF90CF9001
:10040000BF90AF909F908F907F906F905F904F9034
:100410000895CF93DF93EC0103C021960E941A0147
:1004200088818823D1F7DF91CF9108958091A10829
:1004300087FFFCCF8091A0088D3009F48AE00895F1
:10044000982FE0ECF1E08091CF0187FDFACF262FC5
:1004500030E02F713070892F90E045E0880F991FB0
:100460004A95E1F7282B392B2093C001832F8F71F8
:100470008183128286E08287EF93FF930F932F93FD
:10048000EBECF1E008ED21E004BF20832F910F9108
:10049000FF91EF918091C40108958091CF0187FD74
:1004A000FCCF08958091CF0187FDFCCF8091CF01D3
:1004B00081FF12C086E3E0ECF1E08287EF93FF93C7
:1004C0000F932F93EBECF1E008ED21E004BF2083C4
:1004D0002F910F91FF91EF910895DF92EF92FF928C
:1004E0000F931F93E82E062FD42E0E945202E0ECA9
:1004F000F1E083E3828710E00F711070FF2455E074
:10050000EE0CFF1C5A95E1F70E291F290083812F5D
:100510008F7181831282D48285E38287EF93FF9368
:100520000F932F93EBECF1E008ED21E004BF208363
:100530002F910F91FF91EF911F910F91FF90EF90ED
:10054000DF900895982FE0ECF1E08091CF0187FDD6
:10055000FACF83E382879093C00111821282648371
:100560000895DC01E0ECF1E08091CF0187FDFACF46
:1005700083E382871182128290E09093C0018D9173
:1005800084839F5F9032C9F70895982FE0ECF1E0E3
:100590008091CF0187FDFACF892F90E065E0880F29
:1005A000991F6A95E1F78093C001892F8F7181832C
:1005B000128285E38287EF93FF930F932F93EBECE7
:1005C000F1E008ED21E004BF20832F910F91FF910E
:1005D000EF910895982FE0ECF1E08091CF0187FD35
:1005E000FACF892F90E075E0880F991F7A95E1F78F
:1005F0008093C001892F8F718183128282E3828769
:10060000EF93FF930F932F93EBECF1E008ED21E0D4
:1006100004BF20832F910F91FF91EF910895982FA0
:10062000E0ECF1E08091CF0187FDFACF892F90E0D7
:10063000A5E0880F991FAA95E1F78093C001892F43
:100640008F718183128284E38287EF93FF930F93EC
:100650002F93EBECF1E008ED21E004BF20832F9114
:100660000F91FF91EF9108958091CF0187FDFCCF0D
:1006700080E3E0ECF1E08287EF93FF930F932F93F9
:10068000EBECF1E008ED21E004BF20832F910F9106
:10069000FF91EF910895E0E4F6E088E0818384E043
:1006A0008283E0EAF8E085818F73858383E0858328
:1006B0008CE0868317828481886084838481806152
:1006C000848308951F93CF93DF930E944B0380E0B0
:1006D00090E20E9409028AE00E941A010E945202DE
:1006E0008091CC01877FE0ECF1E0848780E060E0DE
:1006F00045E50E946D0280E068E04AEA0E946D02D2
:1007000080E060E00E942002182F8CE090E20E94BE
:100710000902812F0E9429018AE00E941A0180E0CB
:1007200068E00E942002182F82E290E20E940902F3
:10073000812F0E9429018AE00E941A018EE890E22E
:100740000E94B10282E00E94EA0282E00E940F034E
:1007500088E390E20E9409028AE00E941A01CEE832
:10076000D0E210E082E0612F0E942002982F888161
:10077000981739F4892F0E941A011F5F21961032B1
:1007800089F78AE00E941A018091CC018860E0EC30
:10079000F1E084878091CF0187FDFCCF85E58093D0
:1007A00000108091CF0187FDFCCF8AEA809308106A
:1007B0008091CF0187FDFCCF109100108DE490E275
:1007C0000E940902812F0E9429018AE00E941A01D9
:1007D0001091081083E690E20E940902812F0E9486
:1007E00029018AE00E941A018091CC018860E0EC26
:1007F000F1E084878091CF0187FDFCCFA0EAB0E1D2
:10080000FD01E251F04F80818D9380E1A03CB8075B
:10081000B9F785E00E94EA0285E00E940F0380910B
:10082000CF0187FDFCCF89E790E20E9409028AE0B0
:100830000E941A01C0EAD0E19881FE01E251F04F16
:100840008081981741F4892F0E941A01219680E136
:10085000C03CD80789F78AE00E941A010000FECF49
:10086000629FD001739FF001829FE00DF11D649F94
:10087000E00DF11D929FF00D839FF00D749FF00D20
:10088000659FF00D9927729FB00DE11DF91F639FC1
:10089000B00DE11DF91FBD01CF0111240895AA1B60
:1008A000BB1B51E107C0AA1FBB1FA617B70710F05B
:1008B000A61BB70B881F991F5A95A9F7809590958D
:1008C000BC01CD010895A1E21A2EAA1BBB1BFD019C
:1008D0000DC0AA1FBB1FEE1FFF1FA217B307E4071F
:1008E000F50720F0A21BB30BE40BF50B661F771F77
:1008F000881F991F1A9469F7609570958095909557
:0E0900009B01AC01BD01CF010895F894FFCF1B
:10090E00696E73696465206D61696E003120526590
:10091E00616420544553545F425954455F31203D24
:10092E00200031205265616420544553545F425972
:10093E0054455F32203D20003220526561642074A0
:10094E00657374427566666572203D2000332052D1
:10095E0065616420544553545F425954455F3120BC
:10096E003D200033205265616420544553545F424C
:10097E005954455F32203D20003420526561642079
:10098E0074657374427566666572203D200041631E
:10099E0063657373696E672041746D656C20415693
:0E09AE005220584D45474120454550524F4D6F
:00000001FF
