:100000000C94FA000C9420010C9420010C94200113
:100010000C9420010C9420010C9420010C942001DC
:100020000C9420010C9420010C9420010C942001CC
:100030000C94FB030C94C6030C9420010C94200137
:100040000C9420010C9420010C9420010C942001AC
:100050000C9420010C9420010C9420010C9420019C
:100060000C9420010C9420010C9420010C9420018C
:100070000C9420010C9420010C9420010C9420017C
:100080000C9420010C9420010C9420010C9420016C
:100090000C9420010C9420010C9420010C9420015C
:1000A0000C9420010C9420010C9420010C9420014C
:1000B0000C9420010C9420010C9420010C9420013C
:1000C0000C9420010C9420010C9420010C9420012C
:1000D0000C9420010C9420010C9420010C9420011C
:1000E0000C9420010C9420010C9420010C9420010C
:1000F0000C9420010C9420010C9420010C942001FC
:100100000C9420010C9420010C9420010C942001EB
:100110000C9420010C9420010C9420010C942001DB
:100120000C9420010C9420010C9420010C942001CB
:100130000C9420010C9420010C9420010C942001BB
:100140000C9420010C9420010C9420010C942001AB
:100150000C9420010C9420010C9420010C9420019B
:100160000C9420010C9420010C9420010C9420018B
:100170000C9420010C9420010C9420010C9420017B
:100180000C9420010C9420010C9420010C9420016B
:100190000C9420010C9420010C9420010C9420015B
:1001A0000C9420010C9420010C9420010C9420014B
:1001B0000C9420010C9420010C9420010C9420013B
:1001C0000C9420010C9420010C9420010C9420012B
:1001D0000C9420010C9420010C9420010C9420011B
:1001E0000C9420010C9420010C9420010C9420010B
:1001F0000C94200111241FBECFEFDFE3DEBFCDBF83
:1002000000E00CBF18BE19BE1ABE1BBE10E2A0E073
:10021000B0E2E4E6F8E000E00BBF02C007900D9208
:10022000A630B107D9F71BBE10E2A6E0B0E201C0CC
:100230001D92A833B107E1F70E9455030C943004D6
:100240000C940000DC01FB016D937C9311974863D3
:100250004183ED91FC9111972583ED91FC9181E013
:1002600084830895FC010190F081E02D84818370E6
:100270000895FC01878980E008950F93CF93DF9361
:10028000DC01722F293008F044C0093008F041C069
:1002900057968C9157978823E1F581E057968C9378
:1002A000579758961C925897660F12966C93129710
:1002B000EA0120E030E007C08991FD01E20FF31F61
:1002C00083832F5F3F4F2717B8F353967C93539741
:1002D00054960C93549755961C92559756961C928B
:1002E000569753968C915397882329F012968C91A8
:1002F00012978E7F09C054968C915497882339F0B9
:1003000012968C9112978160ED91FC91868381E029
:1003100001C080E0DF91CF910F9108950F93042FDA
:1003200040E050E020E00E943D010F9108950F93BE
:1003300000E00E943D010F910895DC01ED91FC91D8
:100340001197948192FF02C084E001C083E0589627
:100350008C935897ED91FC911197986094835796E0
:100360001C920895CF93DF93DC0153969C91539791
:1003700054962C915497CD91DC9111978C8184FFE8
:1003800004C083E08B8385E021C055968C915597FE
:10039000891778F455968C915597FD01E80FF11D5A
:1003A00083818F8355968C9155978F5F55968C934B
:1003B00012C056968C915697821728F412968C91FB
:1003C00081608E8308C083E08B8381E058968C9394
:1003D000589757961C92DF91CF910895DC0156965D
:1003E0008C915697ED91FC911197883080F497810C
:1003F00056968C915697FD01E80FF11D93875696FE
:100400008C9156978F5F56968C93569709C083E0D0
:10041000838382E058968C93589757961C925797EF
:1004200054969C91549756968C915697ED91FC91C9
:100430001197891718F482E08383089587E08383F6
:1004400081E058968C93589757961C920895DC013A
:10045000ED91FC9111974481242F30E0C9018C70FB
:100460009070892B21F0CD010E949D01089546FFD7
:1004700004C0CD010E94B201089547FF04C0CD0120
:100480000E94EE01089586E058968C9358975796EF
:100490001C920895FC01608F178A0895FC01608307
:1004A000718342835383148A158A168A178A108EA1
:1004B0000895DC01ED91FC91119748634087ED911F
:1004C000FC91660F63870895FC01808DA081B18146
:1004D000882341F082E019968C9386E0878B168AF8
:1004E000108E089581E0868B178A18968C91189744
:1004F0008B7F18968C93148A158A0190F081E02DD9
:1005000083E081870895DC01ED91FC91119780854E
:100510008B7F8087ED91FC91119782858064828723
:1005200081E057968C93579756961C920895CF93D7
:10053000DF93EC01E881F9818085846080878C8974
:10054000E881F9818830D8F494858C89FE01E80F20
:10055000F11D9483EA81FB8119958C898F5F8C8BC7
:10056000888DE881F981882339F082E0818786E0EF
:100570008F8B1E8A188E08C083E0818705C086E0B5
:10058000818782E08F8B1E8ADF91CF910895CF9370
:10059000DF93DC0155968C915597882351F0ED91AE
:1005A000FC911197828584FF04C082E0818781E0FD
:1005B0001EC055968C915597CD91DC91119788303E
:1005C000A0F455968C915597FD01E80FF11D848597
:1005D0008C8755968C9155978F5F55968C93559730
:1005E000ED91FC9183E0818707C082E0898757966F
:1005F0008C93579756961C92DF91CF910895DC010A
:10060000ED91FC911197828581FF04C0CD010E947C
:10061000C7020895CD010E9497020895DC01ED9173
:10062000FC911197928592FF08C054961C925497A2
:1006300055961C92559784E024C093FF08C05496A9
:100640001C92549755961C92559783E01AC096FFBA
:1006500011C090FF04C0CD010E94640208958085FE
:100660008B7F8087ED91FC911197828580648287D2
:1006700081E007C097FF04C0CD010E94FF020895EA
:1006800085E057968C93579756961C920895FC01D7
:10069000678B168A089580913320EFE1F0E2E80F2E
:1006A000F11D8481809584870895CF92DF92EF9227
:1006B000FF920F93CF93DF938FEFE0E6F6E0818315
:1006C00083E08093B00080915006877C8861E0E4ED
:1006D000F6E0808BE0E8F4E0E0930620F09307205A
:1006E00028E7218385E0858381E08483E0931F20D0
:1006F000F09320208BE493E080932120909322209C
:10070000109233201092342010923520109236200F
:100710001092372020878AEA83878091A200816027
:10072000E0EAF0E08283789490E6E92E96E0F92EF4
:1007300082E3C82ED12CF7011482C0E0D0E2888178
:10074000F701848380E197E2F6013197F1F7019791
:10075000D9F786E090E265E5AE0121E001E00E9474
:100760003D0180911D208823E1F780911120F70140
:10077000848380E197E2F6013197F1F70197D9F789
:100780002196F0E2C530DF07D1F6D5CF1F920F9248
:100790000FB60F9208B60F9209B60F920BB60F92D2
:1007A000112418BE19BE1BBE2F933F934F935F9326
:1007B0006F937F938F939F93AF93BF93EF93FF9329
:1007C00086E090E20E942702FF91EF91BF91AF91E6
:1007D0009F918F917F916F915F914F913F912F9159
:1007E0000F900BBE0F9009BE0F9008BE0F900FBE6A
:1007F0000F901F9018951F920F920FB60F9208B688
:100800000F9209B60F920BB60F92112418BE19BEA3
:100810001BBE2F933F934F935F936F937F938F9361
:100820009F93AF93BF93EF93FF938FE190E20E946A
:100830000E03FF91EF91BF91AF919F918F917F91A7
:100840006F915F914F913F912F910F900BBE0F9041
:1008500009BE0F9008BE0F900FBE0F901F90189505
:04086000F894FFCF3A
:0608640001020304050F70
:00000001FF
