:100000000C94FA000C9418010C9418010C9418012B
:100010000C9418010C9418010C9418010C941801FC
:100020000C9418010C9418010C9418010C941801EC
:100030000C9418010C9418010C941A010C941801DA
:100040000C9418010C9418010C9418010C941801CC
:100050000C9418010C9418010C9418010C941801BC
:100060000C9418010C9418010C9418010C941801AC
:100070000C9418010C9418010C9418010C9418019C
:100080000C9418010C9418010C9418010C9418018C
:100090000C9418010C9418010C9418010C9418017C
:1000A0000C9418010C9418010C9418010C9418016C
:1000B0000C9418010C9418010C9418010C9418015C
:1000C0000C9418010C9418010C9418010C9418014C
:1000D0000C9418010C9418010C9418010C9418013C
:1000E0000C9418010C9418010C9418010C9418012C
:1000F0000C9418010C9418010C9418010C9418011C
:100100000C9418010C9418010C9418010C9418010B
:100110000C9418010C9418010C9418010C941801FB
:100120000C9418010C9418010C9418010C941801EB
:100130000C9418010C9418010C9418010C941801DB
:100140000C9418010C9418010C9418010C941801CB
:100150000C9418010C9418010C9418010C941801BB
:100160000C9418010C9418010C9418010C941801AB
:100170000C9418010C9418010C9418010C9418019B
:100180000C9418010C9418010C9418010C9418018B
:100190000C9418010C9418010C9418010C9418017B
:1001A0000C9418010C9418010C9418010C9418016B
:1001B0000C9418010C9418010C9418010C9418015B
:1001C0000C9418010C9418010C9418010C9418014B
:1001D0000C9418010C9418010C9418010C9418013B
:1001E0000C9418010C9418010C9418010C9418012B
:1001F0000C94180111241FBECFEFDFE3DEBFCDBF8B
:1002000000E00CBF18BE19BE1ABE1BBE10E2A0E073
:10021000B0E2E6EBF4E000E00BBF02C007900D9205
:10022000A030B107D9F71BBE0E947F010C94590280
:100230000C9400001F920F920FB60F9208B60F9207
:100240000BB60F92112418BE1BBE8F93EF93FF9332
:10025000E7E6F6E080E2808380E18083FF91EF9122
:100260008F910F900BBE0F9008BE0F900FBE0F9096
:100270001F9018958091500081608093500080916C
:10028000510080FFFCCF80E00E94E50180E060E04B
:100290000E94CD01089580915000826080935000AB
:1002A0008091510081FFFCCF81E00E94E50180E058
:1002B00060E00E94CD01089580E460E04BE00E9480
:1002C000B20180915000886080935000809151006D
:1002D00083FFFCCF80EC66E00E94BD01809150005E
:1002E0008061809350008091510084FFFCCF84E0B6
:1002F0000E94E50180E060E00E94CD0108950E9427
:100300005C0180E380936106E0E0F8E08FEF9FEF0F
:1003100086A397A380910008807F85608093000862
:10032000809106088C7F826086838091A200826023
:10033000E0EAF0E082837894FFCF0F93DF93CF93CE
:100340000F92CDB7DEB72FB72983F8941BBEFC01FF
:1003500008ED04BF608389818FBF0F90CF91DF913B
:100360000F910895662311F490E001C090E2482BAC
:10037000942BE0E5F0E0928308956F71682BE0E53F
:10038000F0E065830895E0E5F0E02081982F9095F6
:10039000922390839081892308950F93DF93CF93C5
:1003A0000F92CDB7DEB79FB79983F8941BBE682B29
:1003B00081E490E0FC0108ED04BF608389818FBF78
:1003C0000F90CF91DF910F9108950F93DF93CF930B
:1003D0000F92CDB7DEB7209140009FB79983F89474
:1003E0001BBEA0E4B0E0287F282BFD0108ED04BF70
:1003F000208399819FBF9C9189230F90CF91DF919A
:100400000F910895E0E4F0E09381917F9160982B43
:1004100093830895282F30915600662311F0982F6A
:1004200001C090E0822F80958323982BE0E5F0E0D7
:100430009683213031F48091680081608093680058
:100440000895223029F480916000816080936000DB
:1004500008950F93DF93CF930F92CDB7DEB78FB789
:100460008983F8941BBE23E083E590E0FC0108ED4E
:1004700004BF208389818FBF0F90CF91DF910F91AF
:1004800008950F93DF93CF930F92CDB7DEB78FB759
:100490008983F8941BBE21E082E490E0FC0108ED22
:1004A00004BF208389818FBF0F90CF91DF910F917F
:0604B0000895F894FFCF4F
:00000001FF
