:100000000C94FA000C9418010C9418010C9418012B
:100010000C9418010C9418010C9418010C941801FC
:100020000C9418010C9418010C9418010C941801EC
:100030000C9418010C9418010C9446020C941801AD
:100040000C9418010C9418010C9418010C941801CC
:100050000C9418010C9418010C9418010C941801BC
:100060000C9418010C9418010C9418010C941801AC
:100070000C9418010C9418010C9418010C9418019C
:100080000C9418010C9418010C9418010C9418018C
:100090000C9418010C9418010C9418010C9418017C
:1000A0000C9418010C9418010C9418010C9418016C
:1000B0000C9418010C9418010C9418010C9418015C
:1000C0000C9418010C9418010C9418010C9418014C
:1000D0000C9418010C9418010C9418010C9418013C
:1000E0000C9418010C9418010C9418010C9418012C
:1000F0000C9418010C9418010C9418010C9418011C
:100100000C9418010C9418010C9418010C9418010B
:100110000C9418010C9418010C9418010C941801FB
:100120000C9418010C9418010C9418010C941801EB
:100130000C9418010C9418010C9418010C941801DB
:100140000C9418010C9418010C9418010C941801CB
:100150000C9418010C9418010C9418010C941801BB
:100160000C9418010C9418010C9418010C941801AB
:100170000C9418010C9418010C9418010C9418019B
:100180000C9418010C9418010C9418010C9418018B
:100190000C9418010C9418010C9418010C9418017B
:1001A0000C9418010C9418010C9418010C9418016B
:1001B0000C9418010C9418010C9418010C9418015B
:1001C0000C9418010C9418010C9418010C9418014B
:1001D0000C9418010C9418010C9418010C9418013B
:1001E0000C9418010C9418010C9418010C9418012B
:1001F0000C94180111241FBECFEFDFE3DEBFCDBF8B
:1002000000E00CBF18BE19BE1ABE1BBE10E2A0E073
:10021000B0E2ECE5F5E000E00BBF02C007900D9204
:10022000A030B107D9F71BBE0E94A9020C94AC0202
:100230000C940000883010F080E00895E82FF0E082
:10024000E058FE4F608381E008950F93882331F0DA
:10025000823021F0843011F080E010C0442311F48A
:1002600090E001C090E1211128E0062B902B922B09
:10027000E82FF0E0E857FE4F908381E00F9108955A
:10028000883010F080E00895E82FF0E0E857FE4F46
:10029000608381E00895E0E8F1E0818B608B089550
:1002A000FC018081807F862B80830895FC01808102
:1002B000807F862B80830895FC018181887F862B37
:1002C00081830895FC018181887F862B8183089535
:1002D000FC01838180718062862B83830895FC01F9
:1002E000838180718062862B83830895FC018181E4
:1002F000607F862B81830895FC0181816073862B4A
:1003000081830895FC018181607F609586238183CC
:100310000895FC018181607360958623818308952F
:10032000FC0186818C7F862B86830895FC01868163
:100330008C7F862B86830895FC018681837F862BA4
:1003400086830895FC018681837F862B86830895AA
:10035000FC0187818C7F862B87830895FC01878130
:100360008C7F862B87830895FC018781837F862B72
:1003700087830895FC018781837F862B8783089577
:10038000FC0187818F7C862B87830895FC01878100
:100390008F73862B87830895FC018081807F808303
:1003A0008CE081870895FC018081807F80838CE0D0
:1003B00081870895E0E6F6E080917006808B21E069
:1003C000228380E28093610688E680938001E0E0EA
:1003D000F8E088E2838380910108806181838FEF58
:1003E0009FEF86A397A32093000890E280910C08CA
:1003F00084FFFCCF80910C0880618487909367060E
:10040000F5CF90E29093610680EC80938001E0E06C
:10041000F2E085EC838391A391E090A388E281A729
:1004200090A780E381AB90AB88E381AF90AF8091E0
:100430000402887F8160848380910102897F8183A7
:1004400080910102877E8183809102028F7C80618E
:10045000828380910002816080930002E0E0F8E0F6
:100460008FEF9FE086A397A3809106088C7F816021
:1004700086838091A2008160E0EAF0E08283789434
:1004800080910008866080930008FFCF1F920F9232
:100490000FB60F9208B60F92112418BE8F9380E208
:1004A000809367068F910F9008BE0F900FBE0F903C
:1004B0001F901895E0E6F6E0108A91E0928380ECB8
:1004C0008093800188E680938101A0E4B8E088E011
:1004D00080934008E0E0F8E089E2838389E31396A3
:1004E0008C93139780E1818311968C93119790934D
:1004F000000880914C0884FFFCCF80910C0880613B
:10050000848780914C0880611C968C931C97F1CF56
:10051000E0E6F6E081E0808B82838FEFE0E4F6E0B6
:10052000818388E68093800187E0809388018FEF44
:100530009FEFE0E0F8E086A397A388E080930008AF
:10054000E0E4F6E080912008909121088095848372
:0C055000F9CF0E948802FFCFF894FFCF83
:00000001FF
