:100000000C94FA000C9420010C9420010C94200113
:100010000C9420010C9420010C9420010C942001DC
:100020000C9420010C9420010C9420010C942001CC
:100030000C9420010C9420010C9420010C942001BC
:100040000C9420010C9420010C9420010C942001AC
:100050000C9420010C9420010C9420010C9420019C
:100060000C9420010C9420010C9420010C9420018C
:100070000C9420010C9420010C9420010C9420017C
:100080000C9420010C9420010C9420010C9420016C
:100090000C9420010C9420010C9420010C9420015C
:1000A0000C9420010C9420010C9420010C9420014C
:1000B0000C9420010C9420010C9420010C9420013C
:1000C0000C9420010C9420010C9420010C9420012C
:1000D0000C9420010C9420010C9420010C9420011C
:1000E0000C9420010C9420010C9420010C9420010C
:1000F0000C9420010C9420010C9420010C942001FC
:100100000C9420010C9420010C9420010C942001EB
:100110000C9420010C9420010C9420010C942001DB
:100120000C9420010C9420010C9420010C942001CB
:100130000C9420010C9420010C9420010C942001BB
:100140000C9420010C9420010C9420010C942001AB
:100150000C9420010C9420010C9420010C9420019B
:100160000C9420010C9420010C9420010C9420018B
:100170000C9420010C9420010C9420010C9420017B
:100180000C9420010C9420010C9420010C9420016B
:100190000C9420010C9420010C9420010C9420015B
:1001A0000C9420010C9420010C9420010C94B702B3
:1001B0000C9420010C9420010C9420010C9420013B
:1001C0000C9420010C9420010C9420010C9420012B
:1001D0000C9420010C9420010C9420010C9420011B
:1001E0000C9420010C9420010C9420010C9420010B
:1001F0000C94200111241FBECFEFDFE3DEBFCDBF83
:1002000000E00CBF18BE19BE1ABE1BBE10E2A0E073
:10021000B0E2ECEDF5E000E00BBF02C007900D92FC
:10022000AA30B107D9F71BBE10E2AAE0B0E201C0C4
:100230001D92A532B107E1F70E944E020C94EC0228
:100240000C940000DC01FB016D937C9311974863D3
:100250004183ED91FC9111972583ED91FC9181E013
:1002600084830895FC010190F081E02D84818370E6
:100270000895FC01808D80E008950F93CF93DF9364
:10028000DC01722F2A3008F044C0093008F041C068
:1002900058968C9158978823E1F581E058968C9375
:1002A000589759961C925997660F12966C9312970D
:1002B000EA0120E030E007C08991FD01E20FF31F61
:1002C00083832F5F3F4F2717B8F354967C9354973F
:1002D00055960C93559756961C92569757961C9286
:1002E000579754968C915497882329F012968C91A5
:1002F00012978E7F09C055968C915597882339F0B7
:1003000012968C9112978160ED91FC91868381E029
:1003100001C080E0DF91CF910F9108950F93042FDA
:1003200040E050E020E00E943D010F9108950F93BE
:1003300000E00E943D010F910895DC01ED91FC91D8
:100340001197948192FF02C084E001C083E0599626
:100350008C935997ED91FC911197986094835896DE
:100360001C920895CF93DF93DC0154969C9154978F
:1003700055962C915597CD91DC9111978C8184FFE6
:1003800004C083E08B8385E021C056968C915697FC
:10039000891778F456968C915697FD01E80FF11D58
:1003A00083818F8356968C9156978F5F56968C9348
:1003B00012C057968C915797821728F412968C91F9
:1003C00081608E8308C083E08B8381E059968C9393
:1003D000599758961C92DF91CF910895DC0157965A
:1003E0008C915797ED91FC911197883080F497810B
:1003F00057968C915797FD01E80FF11D94875796FA
:100400008C9157978F5F57968C93579709C083E0CD
:10041000838382E059968C93599758961C925897EB
:1004200055969C91559757968C915797ED91FC91C5
:100430001197891718F482E08383089587E08383F6
:1004400081E059968C93599758961C920895DC0137
:10045000ED91FC9111974481242F30E0C9018C70FB
:100460009070892B21F0CD010E949D01089546FFD7
:1004700004C0CD010E94B201089547FF04C0CD0120
:100480000E94EE01089586E059968C9359975896EC
:100490001C920895FC01618F108E0895EF92FF92D7
:1004A0000F93CF93DF938FEFE0E6F6E0818383E055
:1004B0008093B0008091B006877C8861E0EAF6E026
:1004C000808BE0EBF4E0E0930B20F0930C2088E7C6
:1004D000818385E0858381E084838091A2008160AF
:1004E000E0EAF0E08283789480E6E82E86E0F82E59
:1004F000C2E3D0E0F701148280910A2080930020AB
:100500008BE090E260E540E050E229E00E94970134
:10051000809123208823E1F780E797E1FE0131975E
:10052000F1F70197D9F740910A208BE090E260E55E
:1005300050E021E008E00E943D01809123208823C3
:10054000E1F720E030E0F901E55FFF4D848580951B
:10055000F701848380E797E1FE013197F1F7019776
:10056000D9F72F5F3F4F2830310569F7C3CF1F926E
:100570000F920FB60F9208B60F9209B60F920BB6F4
:100580000F92112418BE19BE1BBE2F933F934F9399
:100590005F936F937F938F939F93AF93BF93EF93EB
:1005A000FF938BE090E20E942702FF91EF91BF91B1
:1005B000AF919F918F917F916F915F914F913F91FB
:1005C0002F910F900BBE0F9009BE0F9008BE0F9099
:0C05D0000FBE0F901F901895F894FFCFFD
:0A05DC0000000102030405060700F9
:00000001FF
