:100000000C94FA000C9418010C9418010C9418012B
:100010000C9418010C9418010C9418010C941801FC
:100020000C9418010C9418010C9418010C941801EC
:100030000C9418010C9418010C9418010C941801DC
:100040000C9418010C9418010C9418010C941801CC
:100050000C9418010C9418010C9418010C941801BC
:100060000C9418010C9418010C9418010C941801AC
:100070000C9418010C9418010C9418010C9418019C
:100080000C9418010C9418010C9418010C9418018C
:100090000C9418010C9418010C9418010C9418017C
:1000A0000C9418010C9418010C9418010C9418016C
:1000B0000C9418010C9418010C9418010C9418015C
:1000C0000C9418010C9418010C9418010C9418014C
:1000D0000C9418010C9418010C9418010C9418013C
:1000E0000C9418010C9418010C9418010C9418012C
:1000F0000C9418010C9418010C9418010C9418011C
:100100000C9418010C9418010C9418010C9418010B
:100110000C9418010C9418010C9418010C941801FB
:100120000C9418010C9418010C9418010C941801EB
:100130000C9418010C9418010C9418010C941801DB
:100140000C9418010C9418010C9418010C941801CB
:100150000C9418010C9418010C9418010C941801BB
:100160000C9418010C9418010C9418010C941801AB
:100170000C9418010C9418010C9418010C9418019B
:100180000C9418010C9418010C9418010C9418018B
:100190000C9418010C9418010C9418010C9418017B
:1001A0000C9418010C9418010C9418010C9418016B
:1001B0000C9418010C9418010C9418010C9418015B
:1001C0000C9418010C9418010C9418010C9418014B
:1001D0000C9418010C9418010C9418010C9418013B
:1001E0000C9418010C9418010C9418010C9418012B
:1001F0000C94180111241FBECFEFDFE3DEBFCDBF8B
:1002000000E00CBF18BE19BE1ABE1BBE10E2A0E073
:10021000B0E2E4E4F3E000E00BBF02C007900D920F
:10022000A030B107D9F71BBE0E945D010C94A0015C
:100230000C940000FC0181818F7981838281867E0C
:10024000682B642B62838081827F85608083089520
:100250000F93FC0181818F79806481838281867E06
:10026000682B642B6283022B048380818D608083E2
:100270000F910895FC01442319F4608F718F089544
:10028000628F738F0895FC018581662319F421E044
:1002900030E002C022E030E040E090E02823392343
:1002A000232B09F041E0842F0895FC0181818C7F8C
:1002B000862B81834770438308950F9380E293E0F8
:1002C00060E040E020E201E00E94280120E030E010
:1002D000A0E2B3E0E0E2F3E04FEF5FE011C0809115
:1002E000250380FFFCCF208F318F8091250381FF74
:1002F000FCCFCA01821B930B828F938F2F5F3F4FDE
:1003000080E12030380758F320E030E08091250369
:1003100080FFFCCFCA01821B930B58968D939C9350
:1003200059978091250381FFFCCF228F338F2F5F58
:100330003F4F80E12030380749F720E030E0E0CF40
:04034000F894FFCF5F
:00000001FF
