:100000000C94FA000C9420010C9420010C94200113
:100010000C9420010C9420010C9420010C942001DC
:100020000C9420010C9420010C9420010C942001CC
:100030000C9420010C9420010C945F040C9420017A
:100040000C9439030C9420010C9420010C94200191
:100050000C9420010C9420010C9420010C9420019C
:100060000C9420010C9420010C9420010C9420018C
:100070000C9420010C9420010C9420010C9420017C
:100080000C9420010C9420010C9420010C9420016C
:100090000C9420010C9420010C9420010C9420015C
:1000A0000C9420010C9420010C9420010C9420014C
:1000B0000C9420010C9420010C9420010C9420013C
:1000C0000C9420010C9420010C9420010C9420012C
:1000D0000C9420010C9420010C9420010C9420011C
:1000E0000C9420010C9420010C9420010C9420010C
:1000F0000C9420010C9420010C9420010C942001FC
:100100000C9420010C9420010C9420010C942001EB
:100110000C9420010C9420010C9420010C942001DB
:100120000C9420010C9420010C9420010C942001CB
:100130000C9420010C9420010C9420010C942001BB
:100140000C9420010C9420010C9420010C942001AB
:100150000C9420010C9420010C9420010C9420019B
:100160000C9420010C9420010C9420010C9420018B
:100170000C9420010C9420010C9420010C9420017B
:100180000C9420010C9420010C9420010C9420016B
:100190000C9420010C9420010C9420010C9420015B
:1001A0000C9420010C9420010C9420010C9420014B
:1001B0000C9420010C9420010C9420010C9420013B
:1001C0000C9420010C9420010C9420010C9420012B
:1001D0000C9420010C9420010C9420010C9420011B
:1001E0000C9420010C9420010C9420010C9420010B
:1001F0000C94200111241FBECFEFDFE3DEBFCDBF83
:1002000000E00CBF18BE19BE1ABE1BBE10E2A0E073
:10021000B0E2E4E1FAE000E00BBF02C007900D920B
:10022000AA31B107D9F71BBE10E2AAE1B0E201C0C2
:100230001D92A632B107E1F70E942E040C94080526
:100240000C9400001F93182F8A3019F48DE00E943F
:1002500022018091A10885FFFCCF1093A0081F9177
:1002600008951F93182F82958F708A3010F4805D47
:1002700001C0895A0E942201812F90E08F709070F6
:10028000212F2F700A971CF4822F805D02C0822FCD
:10029000895A0E9422011F9108951F93182F892FB8
:1002A0000E943101812F0E9431011F910895EF9228
:1002B000FF920F931F937B018C01C801AA27BB27D4
:1002C0000E944D01C7010E944D011F910F91FF90A7
:1002D000EF900895CF92DF92FF920F931F93CF93E9
:1002E000DF936C01C0E1D7E240E000E010E0C6011E
:1002F000BE010E94D204F62E662329F4442319F489
:10030000C130D10529F48F2D805D0E94220141E08A
:10031000CE016AE070E00E94D2040F5F1F4F0530EB
:10032000110571F08F2D90E09C012C9FC0012D9F35
:10033000900D3C9F900D1124C81AD90AEB01D7CF1C
:10034000DF91CF911F910F91FF90DF90CF90089593
:100350004F925F926F927F928F929F92AF92BF92D5
:10036000CF92DF92EF92FF920F931F93CF93DF9381
:100370005B016C01E12C9AECF92E9AE9092F9BE3C1
:10038000192F4424C0E0D0E0C601B501A8019701AF
:100390000E94E604922E222341F4442031F481E0AD
:1003A000E816F1040105110531F4892D805D0E94E4
:1003B000220144244394C801B7012AE030E040E020
:1003C00050E00E94E604822E732E642E552E219654
:1003D000CA30D105A9F0692D70E080E090E0A80155
:1003E00097010E94B304A61AB70AC80AD90A282D91
:1003F000372D462D552DC901DA017C018D01C4CF61
:10040000DF91CF911F910F91FF90EF90DF90CF90F0
:10041000BF90AF909F908F907F906F905F904F9024
:100420000895CF93DF93EC0103C021960E9422012F
:1004300088818823D1F7DF91CF9108958091A10819
:1004400087FFFCCF8091A0088D3009F48AE00895E1
:10045000FC018081807F862B80830895FC01808150
:10046000807F862B80830895FC018181887F862B85
:1004700081830895FC018181887F862B8183089583
:10048000FC01838180718062862B83830895FC0147
:10049000838180718062862B83830895FC01818132
:1004A000607F862B81830895FC0181816073862B98
:1004B00081830895FC018181607F6095862381831B
:1004C0000895FC018181607360958623818308957E
:1004D000FC0186818C7F862B86830895FC018681B2
:1004E0008C7F862B86830895FC018681837F862BF3
:1004F00086830895FC018681837F862B86830895F9
:10050000FC0187818C7F862B87830895FC0187817E
:100510008C7F862B87830895FC018781837F862BC0
:1005200087830895FC018781837F862B87830895C5
:10053000FC0187818F7C862B87830895FC0187814E
:100540008F73862B87830895FC018081807F808351
:100550008CE081870895FC018081807F80838CE01E
:1005600081870895E0E4F6E088E0818384E0828377
:10057000E0EAF8E085818F73858383E085838CE0F2
:1005800086831782848188608483848180618483E8
:10059000089580E090E1E0E0F8E086A397A38091E1
:1005A0000008807F816080930008FFCFE0E8F6E0DC
:1005B0008AE1838B88E082838FEFE0E6F6E0818337
:1005C00083E7E0E8F1E08283E0E0F8E0809103086F
:1005D00080718A62838380910108806181838FEFBB
:1005E00090E086A397A380910008807F816080932C
:1005F0000008E0E6F6E080910C0884FFFCCF8091D3
:100600002808909129088483F6CF8FEFE0E6F6E082
:10061000818380E28093650680E180936606E0E452
:10062000F6E0108A81E0828380E680938001E0E03A
:10063000F8E08091030880718862838380910108CB
:10064000806181838FEF9FE786A397A38091000845
:10065000807F816080930008809107088C7F816093
:1006600087838091A2008160E0EAF0E08283789441
:10067000FFCF1F920F920FB60F9208B60F9209B6D6
:100680000F920BB60F92112418BE19BE1BBEAF926B
:10069000BF92CF92DF92EF92FF920F931F932F930F
:1006A0003F934F935F936F937F938F939F93AF93FA
:1006B000BF93EF93FF9380E28093670680E180937E
:1006C0006706809128089091290897FF0AC09F77B4
:1006D00080931C2090931D2088E0E0E0F8E0818763
:1006E00004C080931A2090931B20A0901C20B090EF
:1006F0001D2020911A2030911B2084E690E0AC014F
:10070000249FC001259F900D349F900D1124B501A9
:100710000E94D2047B0100E010E080911E209091A5
:100720001F20A0912020B0912120E80EF91E0A1F61
:100730001B1F16950795F794E794E0921E20F09200
:100740001F200093202010932120CC24DD2460E87A
:1007500074E88EE190E0A60195010E94E60459013B
:100760006A018091222090912320A0912420B091B1
:100770002520A80EB91ECA1EDB1ED694C794B794B6
:10078000A794A0922220B0922320C0922420D0923D
:10079000252080E090E20E941102C801B7010E946A
:1007A000A8018AE00E9422018DE090E20E941102DD
:1007B000C601B5010E94A8018AE00E942201FF91B2
:1007C000EF91BF91AF919F918F917F916F915F91C9
:1007D0004F913F912F911F910F91FF90EF90DF90DC
:1007E000CF90BF90AF900F900BBE0F9009BE0F90AF
:1007F00008BE0F900FBE0F901F90189582E0E0E4A6
:10080000F6E08183E0E0F8E080E092E086A397A341
:1008100080910108887F83608183809101088062D4
:10082000818380910008807F85608093000820E0AC
:1008300030E0A0E0B8E091E0215E3F4F82E021305F
:10084000380710F02FE130E0DA962D933C93DB97D8
:1008500080910C0880FFFCCF9487EECF0E94B202FB
:100860000E94FE0380E090E00895E0E8F6E08AE16F
:10087000838B88E0828380E3E0E6F6E0818383E790
:100880008093800187E0E0E8F1E08087E0E0F8E035
:1008900084E090E086A397A3809106088C7F816016
:1008A00086838091A2008160E0EAF0E08283789400
:1008B00080910008807F886080930008FFCF1F929E
:1008C0000F920FB60F9208B60F920BB60F9211242B
:1008D00018BE1BBE8F93EF93FF93E0E6F6E080E136
:1008E000878380E28683FF91EF918F910F900BBEFB
:1008F0000F9008BE0F900FBE0F901F90189580E1CB
:10090000E0E6F6E0818380EC80938001A0E4B8E02B
:1009100080914308806113968C93139782EE94E044
:10092000E0E0F8E086A397A388EC90E096968D939C
:100930009C93979780914008807F886080934008BF
:1009400080910008807F846080930008E0E6F6E0F4
:1009500020E191E080914C0880FFFCCF27831C961A
:100960009C931C97F7CF629FD001739FF001829FE9
:10097000E00DF11D649FE00DF11D929FF00D839F2E
:10098000F00D749FF00D659FF00D9927729FB00DCB
:10099000E11DF91F639FB00DE11DF91FBD01CF01DE
:1009A00011240895AA1BBB1B51E107C0AA1FBB1F3E
:1009B000A617B70710F0A61BB70B881F991F5A95EB
:1009C000A9F780959095BC01CD010895A1E21A2E5A
:1009D000AA1BBB1BFD010DC0AA1FBB1FEE1FFF1FE3
:1009E000A217B307E407F50720F0A21BB30BE40B33
:1009F000F50B661F771F881F991F1A9469F760957A
:100A00007095809590959B01AC01BD01CF01089533
:040A1000F894FFCF88
:100A1400647574794379636C65203D200066726562
:0A0A24007175656E6379203D2000B6
:00000001FF
