:100000000C94BC000C94D2000C94D2000C94D2003E
:100010000C94D2000C94D2000C94D2000C94D20018
:100020000C94D2000C94D2000C94D2000C94D20008
:100030000C94D2000C94D2000C94D2000C94D200F8
:100040000C94D2000C94D2000C94D2000C94D200E8
:100050000C94D2000C94D2000C94D2000C94D200D8
:100060000C94D2000C9411040C94D2000C946704EC
:100070000C94D2000C94D2000C94D2000C94D200B8
:100080000C94D2000C94D2000C94D2000C94D200A8
:100090000C94D2000C94D2000C94D2000C94D20098
:1000A0000C94D2000C94D2000C94D2000C94D20088
:1000B0000C94D2000C94D2000C94D2000C94D20078
:1000C0000C94D2000C94D2000C94D2000C94D20068
:1000D0000C94D2000C94D2000C94D2000C94D20058
:1000E0000C94D2000C94D2000C94D2000C94D20048
:1000F0000C94D2000C94D2000C94D2000C94D20038
:100100000C94D2000C94D2000C94D2000C94D20027
:100110000C94D2000C94D2000C94D2000C94D20017
:100120000C94D2000C94D2000C94D2000C94D20007
:100130000C94D2000C94D2000C94D2000C94D200F7
:100140000C94D2000C94D2000C94D2000C94D200E7
:100150000C94D2000C94D2000C94D2000C94D200D7
:100160000C94D2000C94D2000C94D2000C94D200C7
:100170000C94D2000C94D20011241FBECFEFDFE20A
:10018000DEBFCDBF18BE19BE1ABE1BBE10E2A0E076
:10019000B0E201C01D92A83CB107E1F70E947C03C8
:1001A0000C94CB040C9400000F93DF93CF930F9229
:1001B000CDB7DEB72FB72983F8941BBEFC0108ED3D
:1001C00004BF608389818FBF0F90CF91DF910F9122
:1001D0000895662311F490E001C090E2482B942B1F
:1001E000E0E5F0E0928308956F71682BE0E5F0E0C0
:1001F00065830895E0E5F0E02081982F90959223A3
:1002000090839081892308950F93DF93CF930F926A
:10021000CDB7DEB79FB79983F8941BBE682B81E4F6
:1002200090E0FC0108ED04BF608389818FBF0F90CF
:10023000CF91DF910F9108950F93DF93CF930F929A
:10024000CDB7DEB7209140009FB79983F8941BBECD
:10025000A0E4B0E0287F282BFD0108ED04BF208337
:1002600099819FBF9C9189230F90CF91DF910F912E
:100270000895E0E4F0E09381917F9160982B93835F
:100280000895282F30915600662311F0982F01C051
:1002900090E0822F80958323982BE0E5F0E0968311
:1002A000213031F480916800816080936800089566
:1002B000223029F48091600081608093600008956D
:1002C0000F93DF93CF930F92CDB7DEB78FB78983AC
:1002D000F8941BBE23E083E590E0FC0108ED04BF29
:1002E000208389818FBF0F90CF91DF910F91089567
:1002F0000F93DF93CF930F92CDB7DEB78FB789837C
:10030000F8941BBE21E082E490E0FC0108ED04BFFC
:10031000208389818FBF0F90CF91DF910F91089536
:100320001F93182F8A3019F48DE00E94900180915C
:10033000A10885FFFCCF1093A0081F9108951F937B
:10034000182F82958F708A3010F4805D01C0895A11
:100350000E949001812F90E08F709070212F2F705C
:100360000A971CF4822F805D02C0822F895A0E9456
:1003700090011F9108951F93182F892F0E949F01AC
:10038000812F0E949F011F910895EF92FF920F937A
:100390001F937B018C01C801AA27BB270E94BB01C8
:1003A000C7010E94BB011F910F91FF90EF9008952C
:1003B000CF92DF92FF920F931F93CF93DF936C0145
:1003C000C0E1D7E240E000E010E0C601BE010E94BB
:1003D0009504F62E662329F4442319F4C130D1057F
:1003E00029F48F2D805D0E94900141E0CE016AE0EA
:1003F00070E00E9495040F5F1F4F0530110571F0EA
:100400008F2D90E09C012C9FC0012D9F900D3C9F53
:10041000900D1124C81AD90AEB01D7CFDF91CF91E3
:100420001F910F91FF90DF90CF9008954F925F92B0
:100430006F927F928F929F92AF92BF92CF92DF92F4
:10044000EF92FF920F931F93CF93DF935B016C01A9
:10045000E12C9AECF92E9AE9092F9BE3192F4424F9
:10046000C0E0D0E0C601B501A80197010E94A9042F
:10047000922E222341F4442031F481E0E816F10465
:100480000105110531F4892D805D0E9490014424FD
:100490004394C801B7012AE030E040E050E00E94F8
:1004A000A904822E732E642E552E2196CA30D105B2
:1004B000A9F0692D70E080E090E0A80197010E940A
:1004C0007604A61AB70AC80AD90A282D372D462D50
:1004D000552DC901DA017C018D01C4CFDF91CF9187
:1004E0001F910F91FF90EF90DF90CF90BF90AF9052
:1004F0009F908F907F906F905F904F900895CF93D3
:10050000DF93EC0103C021960E949001888188232B
:10051000D1F7DF91CF9108958091A10887FFFCCF9B
:100520008091A0088D3009F48AE00895FC01808153
:10053000807F862B80830895FC018081807F862BBD
:1005400080830895FC018181887F862B81830895B3
:10055000FC018181887F862B81830895FC01838142
:1005600080718062862B83830895FC018381807172
:100570008062862B83830895FC018181607F862BB6
:1005800081830895FC0181816073862B81830895A6
:10059000FC018181607F6095862381830895FC0141
:1005A000818160736095862381830895FC01868133
:1005B0008C7F862B86830895FC0186818C7F862B19
:1005C00086830895FC018681837F862B8683089528
:1005D000FC018681837F862B86830895FC018781B9
:1005E0008C7F862B87830895FC0187818C7F862BE7
:1005F00087830895FC018781837F862B87830895F5
:10060000FC018781837F862B87830895FC01878186
:100610008F7C862B87830895FC0187818F73862BBF
:1006200087830895FC018081807F80838CE08187AF
:100630000895FC018081807F80838CE0818708950C
:100640000F93DF93CF930F92CDB7DEB78BE4E0E546
:10065000F0E0828380915000886080935000809108
:10066000510083FFFCCF83ECE0E5F0E085838091CF
:1006700050008061809350008091510084FFFCCF36
:1006800084E00E941C018FB78983F8941BBE20E090
:1006900081E490E0FC0108ED04BF208389818FBFD5
:1006A0000F90CF91DF910F910895E0EBF0E090E192
:1006B000928382E383839CBBE59AE79AE09A80E584
:1006C0008093C0091092C1090895E0E4F6E088E043
:1006D000818384E08283E0EAF8E085818F738583FB
:1006E00083E085838DE48683178284818860848398
:1006F00084818061848308950E9420030E945503B1
:100700000E94650384E080BB839A849A80E090E134
:10071000E0E0F8E086A397A380910008807F8760DF
:100720008093000888E38093A3088091A2008760EB
:10073000E0EAF0E082837894E898FECFE1E0F0E22E
:1007400080818093C3098091C20987FFFCCF3196D5
:1007500080E2E430F807A1F7089584E081BBEC9AC9
:10076000EC9886E08093C3098091C20987FFFCCF93
:10077000EC9AEC9AEC9882E08093C3098091C209CC
:1007800087FFFCCF0E949E0380910420E5E0F0E209
:10079000282F30E02E0F3F1F08C080818093C309AF
:1007A0008091C20987FFFCCF3196E217F307A9F7C2
:1007B000EC9A8A98089588E081BBEC9AEC9883E0E3
:1007C0008093C3098091C20987FFFCCF0E949E03DA
:1007D00080910420A4E6B0E2FD01282F30E02A0F2A
:1007E0003B1F09C01092C3098091C20987FFFCCF4B
:1007F0008091C3098193E217F307A1F7E89A07C034
:100800008091A10885FFFCCF8D918093A008AE1741
:10081000BF07B1F78091A10886FFFCCFEC9A8B98B7
:1008200008951F920F920FB60F9208B60F9209B655
:100830000F92112418BE19BE2F933F934F935F93CD
:100840006F937F938F939F93AF93BF93EF93FF9398
:100850008C9A8091A008809300201092200810921A
:100860002108E1E0F0E20BC08091A10887FF07C0FA
:100870008091A00881931092200810922108809105
:10088000200890912108459778F38C98809100205A
:10089000893F11F40E94AD03809100208A3F11F43A
:1008A0000E94DB03FF91EF91BF91AF919F918F91D8
:1008B0007F916F915F914F913F912F910F9009BE62
:1008C0000F9008BE0F900FBE0F901F9018951F92AB
:1008D0000F920FB60F9208B60F92112418BE0F9008
:1008E00008BE0F900FBE0F901F901895629FD00109
:1008F000739FF001829FE00DF11D649FE00DF11DDB
:10090000929FF00D839FF00D749FF00D659FF00D89
:100910009927729FB00DE11DF91F639FB00DE11D76
:10092000F91FBD01CF0111240895AA1BBB1B51E182
:1009300007C0AA1FBB1FA617B70710F0A61BB70B4F
:10094000881F991F5A95A9F780959095BC01CD01F4
:100950000895A1E21A2EAA1BBB1BFD010DC0AA1F00
:10096000BB1FEE1FFF1FA217B307E407F50720F018
:10097000A21BB30BE40BF50B661F771F881F991F93
:100980001A9469F760957095809590959B01AC01DC
:0A099000BD01CF010895F894FFCFD8
:00000001FF
