:020000020000FC
:020000001CC121
:02004000FCC002
:020034008FC17A
:0200300063C2A9
:1002000001020304BBAADDEE0000494E544F4D41EC
:10021000494E000008E00093410604E000934206C6
:1002200003E00093A5080CE00093A60800E000930B
:10023000A70808E00093A40808950E940A010AE0B4
:100240000F931F9198941A3089F40091A10805FF2B
:100250000C94250100001093A0080091A10805FF4F
:100260000C942D0100001DE01093A0080091A1083E
:1002700005FF0C94360100001093A008F2E0EAE0BC
:1002800004919894003009F10F931F9198941A30BB
:1002900089F40091A10805FF0C9449010000109316
:1002A000A0080091A10805FF0C94510100001DE079
:1002B0001093A0080091A10805FF0C945A010000BA
:1002C0001093A00831960C9440010AE00F931F91FF
:1002D00098941A3089F40091A10805FF0C946B01E1
:1002E00000001093A0080091A10805FF0C94730171
:1002F00000001DE01093A0080091A10805FF0C94D8
:100300007C0100001093A00803E00093610603E065
:100310000093B00008E10093500600E000938504CC
:1003200008E70093810401E00093840408E7009348
:1003300088040AEA00938B0401E00093A2007894F9
:100340000AEA00938604B1E2A0E000E00D930C936A
:100350000C94A8010091840406FF0C94D3010000C2
:1003600004FF0C94BA0100000BEA009386040C947D
:10037000CA010000F2E0E0E0B1E2A1E03C91E30F4D
:10038000059133953C939894003021F000938704B5
:100390000C947B020093870400918404086300930B
:1003A00084040C947B02B09187043B2F3295132F69
:1003B0001F7098941A3010F520E3120F1F931F91AD
:1003C00098941A3089F40091A10805FF0C94E30178
:1003D00000001093A0080091A10805FF0C94EB0108
:1003E00000001DE01093A0080091A10805FF0C94E7
:1003F000F40100001093A0080C941F021A5021E48D
:10040000120F1F931F9198941A3089F40091A1083C
:1004100005FF0C94060200001093A0080091A108AB
:1004200005FF0C940E0200001DE01093A00800913F
:10043000A10805FF0C94170200001093A008329544
:10044000132F1F7098941A3010F520E3120F1F938A
:100450001F9198941A3089F40091A10805FF0C941B
:100460002C0200001093A0080091A10805FF0C9435
:10047000340200001DE01093A0080091A10805FFC0
:100480000C943D0200001093A0080C9468021A50CE
:1004900021E4120F1F931F9198941A3089F4009150
:1004A000A10805FF0C944F0200001093A0080091D2
:1004B000A10805FF0C94570200001DE01093A0084E
:1004C0000091A10805FF0C94600200001093A008A1
:1004D000B1E2A1E00C919894003051F002E0009359
:1004E0008304009184040863009384040C947B02C9
:1004F00007E000938304189500918A0406FF0C948A
:100500008702000003E0009389040C94F00300913B
:100510008A0407FF0C94F003000001FF0C9494027E
:1005200000000C94DC03000000918C0498940030CF
:1005300019F400000C943C03D2E2CC27B1E2A1E014
:100540001C91C10F0883B02F3B2F3295132F1F70C2
:1005500098941A3010F520E3120F1F931F9198946E
:100560001A3089F40091A10805FF0C94B202000032
:100570001093A0080091A10805FF0C94BA02000096
:100580001DE01093A0080091A10805FF0C94C30280
:1005900000001093A0080C94EE021A5021E4120FF0
:1005A0001F931F9198941A3089F40091A10805FFB8
:1005B0000C94D50200001093A0080091A10805FF3B
:1005C0000C94DD0200001DE01093A0080091A1082A
:1005D00005FF0C94E60200001093A0083295132F3B
:1005E0001F7098941A3010F520E3120F1F931F917B
:1005F00098941A3089F40091A10805FF0C94FB022D
:1006000000001093A0080091A10805FF0C940303BB
:1006100000001DE01093A0080091A10805FF0C94B4
:100620000C0300001093A0080C9437031A5021E427
:10063000120F1F931F9198941A3089F40091A1080A
:1006400005FF0C941E0300001093A0080091A10860
:1006500005FF0C94260300001DE01093A0080091F4
:10066000A10805FF0C942F0300001093A00803E0DD
:10067000009389040C94F003D2E2CC27B1E2A1E00C
:100680001C91C10F0883B02F3B2F3295132F1F7081
:1006900098941A3010F520E3120F1F931F9198942D
:1006A0001A3089F40091A10805FF0C945203000050
:1006B0001093A0080091A10805FF0C945A030000B4
:1006C0001DE01093A0080091A10805FF0C9463039E
:1006D00000001093A0080C948E031A5021E4120F0E
:1006E0001F931F9198941A3089F40091A10805FF77
:1006F0000C94750300001093A0080091A10805FF59
:100700000C947D0300001DE01093A0080091A10847
:1007100005FF0C94860300001093A0083295132F58
:100720001F7098941A3010F520E3120F1F931F9139
:1007300098941A3089F40091A10805FF0C949B034A
:1007400000001093A0080091A10805FF0C94A303DA
:1007500000001DE01093A0080091A10805FF0C9473
:10076000AC0300001093A0080C94D7031A5021E4A6
:10077000120F1F931F9198941A3089F40091A108C9
:1007800005FF0C94BE0300001093A0080091A1087F
:1007900005FF0C94C60300001DE01093A008009113
:1007A000A10805FF0C94CF0300001093A00806E0F9
:1007B000009389040C94F00304FD0C94ED030000F5
:1007C000D2E2CC27B1E2A1E01C91C10F1A951C9393
:1007D000088100938C040C94F00306E000938904D4
:0807E00000EC00938A04189557
:00000001FF
