:020000020000FC
:02000000FFC03F
:02004000DFC01F
:02011000B6C077
:02011400B8C071
:1002000000E10093B20002E30093B30000E000932A
:1002100010000FEF009318000FEF00931C00BFE0D9
:10022000A0EAA0932608B0932708B3E0A8EEA09315
:100230003808B0933908B7E0A0EDA0933A08B0931E
:100240003B080091010803630093010807E0009355
:10025000000800E00093850307E00093820307E1B4
:100260000093830303ED0093800303E9009381036C
:1002700007E00093A200789400000C943C0100E198
:0E02800000936706189500E200936706189534
:00000001FF
