:020000020000FC
:020000004CC1F1
:020040002CC1D1
:10020000494E544F4D41494E00004163636573733D
:10021000696E416363657373696E4163636573738C
:10022000696E416363657373690008E0009341067A
:1002300004E00093420603E00093A5080CE000935D
:10024000A60800E00093A70808E00093A40808951A
:10025000EF93FF930F932F93EBECF1E008ED21E088
:1002600004BF20832F910F91FF91EF9108950E9479
:10027000460100000091CF0101FD0C943A010000FD
:1002800006E30093CA010E94280108950091CF015E
:1002900007FD0C944601000008950E9415010AE034
:1002A0000F931F9198941A30A9F40F930091A1080D
:1002B00005FF0C94560100000F911093A0080F93B6
:1002C0000091A10805FF0C94600100000F911DE052
:1002D0001093A0080F930091A10805FF0C946B01E7
:1002E00000000F911093A008FF93EF930F93F2E09B
:1002F000E0E004919894003039F10F931F919894A5
:100300001A30A9F40F930091A10805FF0C94830102
:1003100000000F911093A0080F930091A10805FF12
:100320000C948D0100000F911DE01093A0080F9315
:100330000091A10805FF0C94980100000F91109303
:10034000A00831960C9479010F91EF91FF910AE08A
:100350000F931F9198941A30A9F40F930091A1085C
:1003600005FF0C94AE0100000F911093A0080F93AD
:100370000091A10805FF0C94B80100000F911DE049
:100380001093A0080F930091A10805FF0C94C301DE
:1003900000000F911093A0080E94370107EF00930F
:1003A000CC0100E00F930F930F9301E60F930E948F
:1003B00037010F911F912F913F9143E34093CA0161
:1003C0001093C0012093C1013093C2010093C40176
:1003D00005E30093CA010E94280100E00F930F93E8
:1003E00008E00F9302E60F930E9437010F911F91CF
:1003F0002F913F9143E34093CA011093C001209392
:10040000C1013093C2010093C40105E30093CA0106
:100410000E94280100E00F930F930F930E94460162
:100420000F911F912F910093C0011093C101209350
:10043000C20106E00093CA010E942801B091C401E4
:10044000BF931F9198941A30A9F40F930091A108BB
:1004500005FF0C94260200000F911093A0080F9343
:100460000091A10805FF0C94300200000F911DE0DF
:100470001093A0080F930091A10805FF0C943B0274
:1004800000000F911093A00800E00F930F9308E075
:100490000F930E9446010F911F912F910093C0016D
:1004A0001093C1012093C20106E00093CA010E948B
:1004B0002801B091C401BF931F9198941A30A9F4F8
:1004C0000F930091A10805FF0C94610200000F91A9
:1004D0001093A0080F930091A10805FF0C946B02E4
:1004E00000000F911DE01093A0080F930091A10848
:1004F00005FF0C94760200000F911093A0080AE00B
:100500000F931F9198941A30A9F40F930091A108AA
:1005100005FF0C94860200000F911093A0080F9322
:100520000091A10805FF0C94900200000F911DE0BE
:100530001093A0080F930091A10805FF0C949B0253
:1005400000000F911093A0080E94460103E300935E
:10055000CA0100E00093C10100E00093C2014427FA
:10056000F2E0EAE04093C001439505910093C40195
:1005700098940030B9F700E00F9302E00F9300E089
:100580000F930E9446010F911F912F910093C0017C
:100590002093C2011093C10102E30093CA010E949B
:1005A00028010E94460100E00093C0010093C201AF
:1005B00002E00093C10104E30093CA010E942801F4
:1005C000442700E00F9302E00F93042F43950F930D
:1005D0000E9446010F911F912F910093C00110932B
:1005E000C1012093C20106E00093CA010E942801C4
:1005F000B091C401BF931F9198941A30A9F40F933E
:100600000091A10805FF0C94000300000F911093C6
:10061000A0080F930091A10805FF0C940A030000A5
:100620000F911DE01093A0080F930091A10805FF02
:100630000C94150300000F911093A008B03009F638
:100640000AE00F931F9198941A30A9F40F93009128
:10065000A10805FF0C94270300000F911093A00838
:100660000F930091A10805FF0C94310300000F9136
:100670001DE01093A0080F930091A10805FF0C94B2
:100680003C0300000F911093A00808E00093CC01F8
:100690000E944601F0E1E0E00CED01930E9446016A
:1006A00000E00093C0010093C20100E10093C1018A
:1006B00005E30093CA010E9428010E9446010AEA4C
:1006C000008301E00093C00100E00093C20100E15B
:1006D0000093C10105E30093CA010E9428010E9412
:1006E0004601F0E1E0E0B191A081BF93AF930F9399
:1006F0001F932F933F93BF933B2F3295132F1F7060
:1007000098941A3040F520E3120F1F931F9198948C
:100710001A30A9F40F930091A10805FF0C948B03E4
:1007200000000F911093A0080F930091A10805FFFE
:100730000C94950300000F911DE01093A0080F93F7
:100740000091A10805FF0C94A00300000F911093E5
:10075000A0080C94D2031A5021E4120F1F931F918A
:1007600098941A30A9F40F930091A10805FF0C94F6
:10077000B40300000F911093A0080F930091A108FB
:1007800005FF0C94BE0300000F911DE01093A0081C
:100790000F930091A10805FF0C94C90300000F916D
:1007A0001093A0083295132F1F7098941A3040F5BB
:1007B00020E3120F1F931F9198941A30A9F40F93FE
:1007C0000091A10805FF0C94E00300000F91109325
:1007D000A0080F930091A10805FF0C94EA03000004
:1007E0000F911DE01093A0080F930091A10805FF41
:1007F0000C94F50300000F911093A0080C942704AB
:100800001A5021E4120F1F931F9198941A30A9F4E3
:100810000F930091A10805FF0C94090400000F91AB
:100820001093A0080F930091A10805FF0C941304E6
:1008300000000F911DE01093A0080F930091A108F4
:1008400005FF0C941E0400000F911093A008BF91A7
:100850003F912F911F910F91BA2F0F931F932F93B9
:100860003F93BF933B2F3295132F1F7098941A30EC
:1008700040F520E3120F1F931F9198941A30A9F4AA
:100880000F930091A10805FF0C94410400000F9103
:100890001093A0080F930091A10805FF0C944B043E
:1008A00000000F911DE01093A0080F930091A10884
:1008B00005FF0C94560400000F911093A0080C94AF
:1008C00088041A5021E4120F1F931F9198941A3034
:1008D000A9F40F930091A10805FF0C946A0400008D
:1008E0000F911093A0080F930091A10805FF0C949D
:1008F000740400000F911DE01093A0080F93009165
:10090000A10805FF0C947F0400000F911093A0082C
:100910003295132F1F7098941A3040F520E3120F70
:100920001F931F9198941A30A9F40F930091A10876
:1009300005FF0C94960400000F911093A0080F93EC
:100940000091A10805FF0C94A00400000F911DE088
:100950001093A0080F930091A10805FF0C94AB041D
:1009600000000F911093A0080C94DD041A5021E4AC
:10097000120F1F931F9198941A30A9F40F930091AE
:10098000A10805FF0C94BF0400000F911093A0086C
:100990000F930091A10805FF0C94C90400000F916A
:1009A0001DE01093A0080F930091A10805FF0C947F
:1009B000D40400000F911093A008BF913F912F9194
:1009C0001F910F91AF91BF910AE00F931F919894DF
:1009D0001A30A9F40F930091A10805FF0C94EB04C1
:1009E00000000F911093A0080F930091A10805FF3C
:1009F0000C94F50400000F911DE01093A0080F93D4
:100A00000091A10805FF0C94000500000F911093C0
:100A1000A00808E00093CC0103E30093CA010E9400
:100A20004601F2E0EAE0B3E1A0E005910D9398946D
:100A30000030D9F700E00F9303E10F9300E00F932C
:100A40000E9446010F911F912F910093C0012093A6
:100A5000C2011093C10102E30093CA010E94280160
:100A60000E94460100E00093C00100E00093C20133
:100A700003E10093C10104E30093CA010E9428012D
:100A80000E9446014427F3E1E0E0B191BF931F913A
:100A900098941A30A9F40F930091A10805FF0C94C3
:100AA0004C0500000F911093A0080F930091A1082E
:100AB00005FF0C94560500000F911DE01093A0084F
:100AC0000F930091A10805FF0C94610500000F91A0
:0C0AD0001093A008B030C9F60C946C051F
:00000001FF
