:020000022000DC
:100000000D94FA000D9420010D9420010D9420010F
:100010000D9420010D9420010D9420010D942001D8
:100020000D9420010D9420010D9420010D942001C8
:100030000D9420010D9420010D9420010D942001B8
:100040000D9420010D9420010D9420010D942001A8
:100050000D9420010D9420010D9420010D94200198
:100060000D9420010D941C030D9420010D9420018A
:100070000D9420010D9420010D9420010D94200178
:100080000D9420010D9420010D9420010D94200168
:100090000D9420010D9420010D9420010D94200158
:1000A0000D9420010D9420010D9420010D94200148
:1000B0000D9420010D9420010D9420010D94200138
:1000C0000D9420010D9420010D9420010D94200128
:1000D0000D9420010D9420010D9420010D94200118
:1000E0000D9420010D9420010D9420010D94200108
:1000F0000D9420010D9420010D9420010D942001F8
:100100000D9420010D9420010D9420010D942001E7
:100110000D9420010D9420010D9420010D942001D7
:100120000D9420010D9420010D9420010D942001C7
:100130000D9420010D9420010D9420010D942001B7
:100140000D9420010D9420010D9420010D942001A7
:100150000D9420010D9420010D9420010D94200197
:100160000D9420010D9420010D9420010D94200187
:100170000D9420010D9420010D9420010D94200177
:100180000D9420010D9420010D9420010D94200167
:100190000D9420010D9420010D9420010D94200157
:1001A0000D9420010D9420010D9420010D94200147
:1001B0000D9420010D9420010D9420010D94200137
:1001C0000D9420010D9420010D9420010D94200127
:1001D0000D9420010D9420010D9420010D94200117
:1001E0000D9420010D9420010D9420010D94200107
:1001F0000D94200111241FBECFEFDFE3DEBFCDBF82
:1002000001E00CBF18BE19BE1ABE1BBE10E2A0E072
:10021000B0E2E6E9F9E002E00BBF02C007900D9200
:10022000A031B107D9F71BBE14E2A0E1B0E201C0D2
:100230001D92A131B107E1F70F94D3020D94C904C7
:100240000D9400001F93182F8A3019F48DE00F943D
:1002500022018091A10885FFFCCF1093A0081F9177
:1002600008951F93182F82958F708A3010F4805D47
:1002700001C0895A0F942201812F90E08F709070F5
:10028000212F2F700A971CF4822F805D02C0822FCD
:10029000895A0F9422011F9108951F93182F892FB7
:1002A0000F943101812F0F9431011F910895EF9226
:1002B000FF920F931F937B018C01C801AA27BB27D4
:1002C0000F944D01C7010F944D011F910F91FF90A5
:1002D000EF900895CF92DF92FF920F931F93CF93E9
:1002E000DF936C01C0E1D7E240E000E010E0C6011E
:1002F000BE010F949304F62E662329F4442319F4C7
:10030000C130D10529F48F2D805D0F94220141E089
:10031000CE016AE070E00F9493040F5F1F4F053029
:10032000110571F08F2D90E09C012C9FC0012D9F35
:10033000900D3C9F900D1124C81AD90AEB01D7CF1C
:10034000DF91CF911F910F91FF90DF90CF90089593
:100350004F925F926F927F928F929F92AF92BF92D5
:10036000CF92DF92EF92FF920F931F93CF93DF9381
:100370005B016C01E12C9AECF92E9AE9092F9BE3C1
:10038000192F4424C0E0D0E0C601B501A8019701AF
:100390000F94A704922E222341F4442031F481E0EB
:1003A000E816F1040105110531F4892D805D0F94E3
:1003B000220144244394C801B7012AE030E040E020
:1003C00050E00F94A704822E732E642E552E219692
:1003D000CA30D105A9F0692D70E080E090E0A80155
:1003E00097010F947404A61AB70AC80AD90A282DCF
:1003F000372D462D552DC901DA017C018D01C4CF61
:10040000DF91CF911F910F91FF90EF90DF90CF90F0
:10041000BF90AF909F908F907F906F905F904F9024
:100420000895CF93DF93EC0103C021960F9422012E
:1004300088818823D1F7DF91CF9108958091A10819
:1004400087FFFCCF8091A0088D3009F48AE00895E1
:10045000FC018081807F862B80830895FC01808150
:10046000807F862B80830895FC018181887F862B85
:1004700081830895FC018181887F862B8183089583
:10048000FC01838180718062862B83830895FC0147
:10049000838180718062862B83830895FC01818132
:1004A000607F862B81830895FC0181816073862B98
:1004B00081830895FC018181607F6095862381831B
:1004C0000895FC018181607360958623818308957E
:1004D000FC0186818C7F862B86830895FC018681B2
:1004E0008C7F862B86830895FC018681837F862BF3
:1004F00086830895FC018681837F862B86830895F9
:10050000FC0187818C7F862B87830895FC0187817E
:100510008C7F862B87830895FC018781837F862BC0
:1005200087830895FC018781837F862B87830895C5
:10053000FC0187818F7C862B87830895FC0187814E
:100540008F73862B87830895FC018081807F808351
:100550008CE081870895FC018081807F80838CE01E
:100560008187089588ED84BFE0EAF0E012821CBE26
:10057000E0E0F0E019950895E0E4F6E088E081839A
:1005800084E08283E0EAF8E085818F73858383E0ED
:1005900085838CE08683178284818860848384814C
:1005A0008061848308950F94BC0280E090E20F94F0
:1005B00011028AE00F94220181E08093102080E0F4
:1005C00090E1E0E0F8E086A397A380910008807FA7
:1005D0008760809300088091A3088F7C8061E0EAA7
:1005E000F8E0838388ED84BF81E4E0EAF0E0828371
:1005F0007894809110208823E1F7F8940F94B20248
:10060000089520E030E540E050E020930F22309341
:10061000102240931122509312220F94FC036091F8
:100620000F227091102280911122909112220F942A
:1006300026040F944D0408951F920F920FB60F9247
:1006400008B60F9209B60F920BB60F92112418BE7E
:1006500019BE1BBE0F931F932F933F934F935F932E
:100660006F937F938F939F93AF93BF93EF93FF937A
:100670001092102010922008109221088091A0085A
:10068000809311201092122000E013C08091A108E5
:1006900087FF0FC00F5F8091A008E02FF0E0EE0F02
:1006A000FF1FEF5EFF4D8083118210922008109291
:1006B00021088091200890912108459738F381E125
:1006C00090E20F94010380E090E5A0E0B0E0809319
:1006D0000F2290931022A0931122B093122210E0C7
:1006E00060910F227091102280911122909112221C
:1006F0000F94C803E12FF0E0EE0FFF1FED5EFD4DFC
:100700008083918380910F2290911022A0911122D9
:10071000B09112220296A11DB11D80930F229093D9
:100720001022A0931122B09312221F5F0117C0F66E
:1007300090E08091A10885FFFCCFE92FF0E0EE0F5B
:10074000FF1FED5EFD4D80818093A0089F5F09171C
:1007500080F7FF91EF91BF91AF919F918F917F9122
:100760006F915F914F913F912F911F910F910F903A
:100770000BBE0F9009BE0F9008BE0F900FBE0F90DA
:100780001F9018953BB78BBFFB0186913BBF089527
:100790003BB78BBFFB01879196913BBF089542E029
:1007A00094C041E092C08093C00188278093C1012A
:1007B0008093C20147E079D0CB0108958093C401B2
:1007C00048E073C08091D00108953BB748E10D9493
:1007D0006A043BB74AE10D946A043BB740E20D94CA
:1007E0006A043BB78BBFCB0142E20D946A043BB76E
:1007F0000B0143E20D946A04EE27FF2719BEDC01CA
:1008000043E24093CA0150E02DE90D901D902093E2
:100810003400E89532965A95C1F7112408953BB7F4
:100820006BBFFA0119BEDC0140E04093CA0150E001
:10083000879197918D939D935A95D1F73BBF0895DA
:100840003BB78BBFCB0144E20D946A043BB78BBF2F
:10085000CB0145E20D946A043BB746E20D946A046D
:100860003BB78BBFCB014AE20D946A043BB78BBF09
:10087000CB014CE20D946A043BB78BBFCB014DE238
:100880000D946A0448E311C049E30FC028ED20939A
:10089000340021E02093CC0108952091CF0127FD61
:1008A000FCCF22272093CA0108954093CA0128ED66
:1008B00031E0209334003093CB016091C4017091FA
:1008C000C5018091C60199270895FC014093CA0192
:1008D00084910895FC014093CA012DE920933400CE
:1008E000E89511243BBF0895629FD001739FF001EA
:1008F000829FE00DF11D649FE00DF11D929FF00DB0
:10090000839FF00D749FF00D659FF00D9927729FE6
:10091000B00DE11DF91F639FB00DE11DF91FBD0171
:10092000CF0111240895AA1BBB1B51E107C0AA1FC8
:10093000BB1FA617B70710F0A61BB70B881F991F80
:100940005A95A9F780959095BC01CD010895A1E233
:100950001A2EAA1BBB1BFD010DC0AA1FBB1FEE1F39
:10096000FF1FA217B307E407F50720F0A21BB30B84
:10097000E40BF50B661F771F881F991F1A9469F700
:1009800060957095809590959B01AC01BD01CF015C
:060990000895F894FFCF6A
:10099600656E74657220696E746F206D61696E0094
:0400000320000000D9
:00000001FF
